{"contracts/extensions/HelloWormholeConfirmation.sol":{"HelloWormholeConfirmation":{"abi":[{"inputs":[{"internalType":"address","name":"_wormholeRelayer","type":"address"},{"internalType":"address","name":"_wormhole","type":"address"}],"stateMutability":"nonpayable","type":"constructor"},{"inputs":[{"internalType":"bytes32","name":"","type":"bytes32"}],"name":"NotAnEvmAddress","type":"error"},{"anonymous":false,"inputs":[{"indexed":false,"internalType":"string","name":"greeting","type":"string"},{"indexed":false,"internalType":"uint16","name":"senderChain","type":"uint16"},{"indexed":false,"internalType":"address","name":"sender","type":"address"}],"name":"GreetingReceived","type":"event"},{"anonymous":false,"inputs":[{"indexed":false,"internalType":"string","name":"greeting","type":"string"},{"indexed":false,"internalType":"address","name":"sender","type":"address"}],"name":"GreetingSuccess","type":"event"},{"inputs":[],"name":"latestConfirmedSentGreeting","outputs":[{"internalType":"string","name":"","type":"string"}],"stateMutability":"view","type":"function"},{"inputs":[],"name":"latestGreeting","outputs":[{"internalType":"string","name":"","type":"string"}],"stateMutability":"view","type":"function"},{"inputs":[{"internalType":"uint16","name":"targetChain","type":"uint16"}],"name":"quoteConfirmation","outputs":[{"internalType":"uint256","name":"cost","type":"uint256"}],"stateMutability":"view","type":"function"},{"inputs":[{"internalType":"uint16","name":"targetChain","type":"uint16"},{"internalType":"uint256","name":"receiverValue","type":"uint256"}],"name":"quoteCrossChainGreeting","outputs":[{"internalType":"uint256","name":"cost","type":"uint256"}],"stateMutability":"view","type":"function"},{"inputs":[{"internalType":"bytes","name":"payload","type":"bytes"},{"internalType":"bytes[]","name":"","type":"bytes[]"},{"internalType":"bytes32","name":"sourceAddress","type":"bytes32"},{"internalType":"uint16","name":"sourceChain","type":"uint16"},{"internalType":"bytes32","name":"","type":"bytes32"}],"name":"receiveWormholeMessages","outputs":[],"stateMutability":"payable","type":"function"},{"inputs":[{"internalType":"uint16","name":"targetChain","type":"uint16"},{"internalType":"address","name":"targetAddress","type":"address"},{"internalType":"string","name":"greeting","type":"string"},{"internalType":"uint256","name":"receiverValueForSecondDeliveryPayment","type":"uint256"}],"name":"sendCrossChainGreeting","outputs":[],"stateMutability":"payable","type":"function"},{"inputs":[{"internalType":"uint16","name":"sourceChain","type":"uint16"},{"internalType":"bytes32","name":"sourceAddress","type":"bytes32"}],"name":"setRegisteredSender","outputs":[],"stateMutability":"nonpayable","type":"function"},{"inputs":[],"name":"wormhole","outputs":[{"internalType":"contract IWormhole","name":"","type":"address"}],"stateMutability":"view","type":"function"},{"inputs":[],"name":"wormholeRelayer","outputs":[{"internalType":"contract IWormholeRelayer","name":"","type":"address"}],"stateMutability":"view","type":"function"}],"evm":{"bytecode":{"linkReferences":{},"object":"60c060405234801561001057600080fd5b5060405161112838038061112883398101604081905261002f91610074565b6001600160a01b039182166080521660a052600080546001600160a01b031916331790556100a7565b80516001600160a01b038116811461006f57600080fd5b919050565b6000806040838503121561008757600080fd5b61009083610058565b915061009e60208401610058565b90509250929050565b60805160a05161103a6100ee600039600060dd01526000818161017f0152818161027a01528181610465015281816105d7015281816106e00152610802015261103a6000f3fe6080604052600436106100865760003560e01c8063921b58a911610059578063921b58a91461012a578063a78de30b1461013f578063da25b7251461016d578063dd12d68b146101a1578063f88adcca146101c157600080fd5b806330e1a2371461008b578063529dca32146100b657806384acd1bb146100cb5780638a28c31f14610117575b600080fd5b34801561009757600080fd5b506100a06101e1565b6040516100ad91906108f8565b60405180910390f35b6100c96100c43660046109f6565b61026f565b005b3480156100d757600080fd5b506100ff7f000000000000000000000000000000000000000000000000000000000000000081565b6040516001600160a01b0390911681526020016100ad565b6100c9610125366004610b17565b6105bb565b34801561013657600080fd5b506100a06106a8565b34801561014b57600080fd5b5061015f61015a366004610b93565b6106b5565b6040519081526020016100ad565b34801561017957600080fd5b506100ff7f000000000000000000000000000000000000000000000000000000000000000081565b3480156101ad57600080fd5b506100c96101bc366004610bae565b610759565b3480156101cd57600080fd5b5061015f6101dc366004610bae565b6107d6565b600380546101ee90610bd8565b80601f016020809104026020016040519081016040528092919081815260200182805461021a90610bd8565b80156102675780601f1061023c57610100808354040283529160200191610267565b820191906000526020600020905b81548152906001019060200180831161024a57829003601f168201915b505050505081565b336001600160a01b037f000000000000000000000000000000000000000000000000000000000000000016146102f75760405162461bcd60e51b815260206004820152602260248201527f4d73672e73656e646572206973206e6f7420576f726d686f6c652052656c617960448201526132b960f11b60648201526084015b60405180910390fd5b61ffff82166000908152600160205260409020548290849081146103555760405162461bcd60e51b81526020600482015260156024820152742737ba103932b3b4b9ba32b932b21039b2b73232b960591b60448201526064016102ee565b60008780602001905181019061036b9190610c21565b9050600081600181111561038157610381610c3c565b03610533576000808980602001905181019061039d9190610c52565b9093509150600290506103b08382610d3b565b507f5c4ab0cfb98525b63324629eb8c98352dec2bece203410170311b78405054676600288836040516103e593929190610dfb565b60405180910390a160006103f8886106b5565b9050803410156104635760405162461bcd60e51b815260206004820152603060248201527f4469646e2774207265636569766520656e6f7567682076616c756520666f722060448201526f746865207365636f6e642073656e642160801b60648201526084016102ee565b7f00000000000000000000000000000000000000000000000000000000000000006001600160a01b0316638fecdd02828a61049d8d61087c565b600188886040516020016104b393929190610ea2565b604051602081830303815290604052600061c3506040518763ffffffff1660e01b81526004016104e7959493929190610ef1565b60206040518083038185885af1158015610505573d6000803e3d6000fd5b50505050506040513d601f19601f8201168201806040525081019061052a9190610f33565b505050506105b1565b600181600181111561054757610547610c3c565b036105b157600080898060200190518101906105639190610c52565b92509250507f6aa04bb8658fed64f72b804aa21b2ef8ec8c344788d23dda61fc51254f407d3e8282604051610599929190610f5d565b60405180910390a160036105ad8382610d3b565b5050505b5050505050505050565b60006105c785836107d6565b90508034146105d557600080fd5b7f00000000000000000000000000000000000000000000000000000000000000006001600160a01b0316634b5ca6f48287876000883360405160200161061d93929190610ea2565b60408051601f1981840301815290829052600480546001600160e01b031960e089901b16845261065d9594938b92620864709261ffff1691339101610f87565b60206040518083038185885af115801561067b573d6000803e3d6000fd5b50505050506040513d601f19601f820116820180604052508101906106a09190610f33565b505050505050565b600280546101ee90610bd8565b60405163c23ee3c360e01b815261ffff8216600482015260006024820181905261c3506044830152907f00000000000000000000000000000000000000000000000000000000000000006001600160a01b03169063c23ee3c3906064016040805180830381865afa15801561072e573d6000803e3d6000fd5b505050506040513d601f19601f820116820180604052508101906107529190610fe0565b5092915050565b6000546001600160a01b031633146107bf5760405162461bcd60e51b8152602060048201526024808201527f4e6f7420616c6c6f77656420746f207365742072656769737465726564207365604482015263373232b960e11b60648201526084016102ee565b61ffff909116600090815260016020526040902055565b60405163c23ee3c360e01b815261ffff83166004820152602481018290526208647060448201526000907f00000000000000000000000000000000000000000000000000000000000000006001600160a01b03169063c23ee3c3906064016040805180830381865afa158015610850573d6000803e3d6000fd5b505050506040513d601f19601f820116820180604052508101906108749190610fe0565b509392505050565b600060a082901c156108a45760405163033b960d60e41b8152600481018390526024016102ee565b5090565b60005b838110156108c35781810151838201526020016108ab565b50506000910152565b600081518084526108e48160208601602086016108a8565b601f01601f19169290920160200192915050565b60208152600061090b60208301846108cc565b9392505050565b634e487b7160e01b600052604160045260246000fd5b604051601f8201601f1916810167ffffffffffffffff8111828210171561095157610951610912565b604052919050565b600067ffffffffffffffff82111561097357610973610912565b50601f01601f191660200190565b600061099461098f84610959565b610928565b90508281528383830111156109a857600080fd5b828260208301376000602084830101529392505050565b600082601f8301126109d057600080fd5b61090b83833560208501610981565b803561ffff811681146109f157600080fd5b919050565b600080600080600060a08688031215610a0e57600080fd5b853567ffffffffffffffff80821115610a2657600080fd5b610a3289838a016109bf565b9650602091508188013581811115610a4957600080fd5b8801601f81018a13610a5a57600080fd5b803582811115610a6c57610a6c610912565b8060051b610a7b858201610928565b918252828101850191858101908d841115610a9557600080fd5b86850192505b83831015610ad157823586811115610ab35760008081fd5b610ac18f89838901016109bf565b8352509186019190860190610a9b565b809a505050505050505060408601359250610aee606087016109df565b949793965091946080013592915050565b6001600160a01b0381168114610b1457600080fd5b50565b60008060008060808587031215610b2d57600080fd5b610b36856109df565b93506020850135610b4681610aff565b9250604085013567ffffffffffffffff811115610b6257600080fd5b8501601f81018713610b7357600080fd5b610b8287823560208401610981565b949793965093946060013593505050565b600060208284031215610ba557600080fd5b61090b826109df565b60008060408385031215610bc157600080fd5b610bca836109df565b946020939093013593505050565b600181811c90821680610bec57607f821691505b602082108103610c0c57634e487b7160e01b600052602260045260246000fd5b50919050565b8051600281106109f157600080fd5b600060208284031215610c3357600080fd5b61090b82610c12565b634e487b7160e01b600052602160045260246000fd5b600080600060608486031215610c6757600080fd5b610c7084610c12565b9250602084015167ffffffffffffffff811115610c8c57600080fd5b8401601f81018613610c9d57600080fd5b8051610cab61098f82610959565b818152876020838501011115610cc057600080fd5b610cd18260208301602086016108a8565b8094505050506040840151610ce581610aff565b809150509250925092565b601f821115610d3657600081815260208120601f850160051c81016020861015610d175750805b601f850160051c820191505b818110156106a057828155600101610d23565b505050565b815167ffffffffffffffff811115610d5557610d55610912565b610d6981610d638454610bd8565b84610cf0565b602080601f831160018114610d9e5760008415610d865750858301515b600019600386901b1c1916600185901b1785556106a0565b600085815260208120601f198616915b82811015610dcd57888601518255948401946001909101908401610dae565b5085821015610deb5787850151600019600388901b60f8161c191681555b5050505050600190811b01905550565b606081526000808554610e0d81610bd8565b8060608601526080600180841660008114610e2f5760018114610e4957610e7a565b60ff1985168884015283151560051b880183019550610e7a565b8a60005260208060002060005b86811015610e715781548b8201870152908401908201610e56565b8a018501975050505b5050505061ffff861660208501525090506001600160a01b0383166040830152949350505050565b600060028510610ec257634e487b7160e01b600052602160045260246000fd5b84825260606020830152610ed960608301856108cc565b905060018060a01b0383166040830152949350505050565b61ffff861681526001600160a01b038516602082015260a060408201819052600090610f1f908301866108cc565b606083019490945250608001529392505050565b600060208284031215610f4557600080fd5b815167ffffffffffffffff8116811461090b57600080fd5b604081526000610f7060408301856108cc565b905060018060a01b03831660208301529392505050565b600061ffff808a16835260018060a01b03808a16602085015260e06040850152610fb460e085018a6108cc565b925087606085015286608085015281861660a085015280851660c0850152505098975050505050505050565b60008060408385031215610ff357600080fd5b50508051602090910151909290915056fea2646970667358221220b036538fd5ae383dcb3b2bfd4b59f85a1a2c835357ff0b3e9feeab142648d6e164736f6c63430008140033","opcodes":"PUSH1 0xC0 PUSH1 0x40 MSTORE CALLVALUE DUP1 ISZERO PUSH2 0x10 JUMPI PUSH1 0x0 DUP1 REVERT JUMPDEST POP PUSH1 0x40 MLOAD PUSH2 0x1128 CODESIZE SUB DUP1 PUSH2 0x1128 DUP4 CODECOPY DUP2 ADD PUSH1 0x40 DUP2 SWAP1 MSTORE PUSH2 0x2F SWAP2 PUSH2 0x74 JUMP JUMPDEST PUSH1 0x1 PUSH1 0x1 PUSH1 0xA0 SHL SUB SWAP2 DUP3 AND PUSH1 0x80 MSTORE AND PUSH1 0xA0 MSTORE PUSH1 0x0 DUP1 SLOAD PUSH1 0x1 PUSH1 0x1 PUSH1 0xA0 SHL SUB NOT AND CALLER OR SWAP1 SSTORE PUSH2 0xA7 JUMP JUMPDEST DUP1 MLOAD PUSH1 0x1 PUSH1 0x1 PUSH1 0xA0 SHL SUB DUP2 AND DUP2 EQ PUSH2 0x6F JUMPI PUSH1 0x0 DUP1 REVERT JUMPDEST SWAP2 SWAP1 POP JUMP JUMPDEST PUSH1 0x0 DUP1 PUSH1 0x40 DUP4 DUP6 SUB SLT ISZERO PUSH2 0x87 JUMPI PUSH1 0x0 DUP1 REVERT JUMPDEST PUSH2 0x90 DUP4 PUSH2 0x58 JUMP JUMPDEST SWAP2 POP PUSH2 0x9E PUSH1 0x20 DUP5 ADD PUSH2 0x58 JUMP JUMPDEST SWAP1 POP SWAP3 POP SWAP3 SWAP1 POP JUMP JUMPDEST PUSH1 0x80 MLOAD PUSH1 0xA0 MLOAD PUSH2 0x103A PUSH2 0xEE PUSH1 0x0 CODECOPY PUSH1 0x0 PUSH1 0xDD ADD MSTORE PUSH1 0x0 DUP2 DUP2 PUSH2 0x17F ADD MSTORE DUP2 DUP2 PUSH2 0x27A ADD MSTORE DUP2 DUP2 PUSH2 0x465 ADD MSTORE DUP2 DUP2 PUSH2 0x5D7 ADD MSTORE DUP2 DUP2 PUSH2 0x6E0 ADD MSTORE PUSH2 0x802 ADD MSTORE PUSH2 0x103A PUSH1 0x0 RETURN INVALID PUSH1 0x80 PUSH1 0x40 MSTORE PUSH1 0x4 CALLDATASIZE LT PUSH2 0x86 JUMPI PUSH1 0x0 CALLDATALOAD PUSH1 0xE0 SHR DUP1 PUSH4 0x921B58A9 GT PUSH2 0x59 JUMPI DUP1 PUSH4 0x921B58A9 EQ PUSH2 0x12A JUMPI DUP1 PUSH4 0xA78DE30B EQ PUSH2 0x13F JUMPI DUP1 PUSH4 0xDA25B725 EQ PUSH2 0x16D JUMPI DUP1 PUSH4 0xDD12D68B EQ PUSH2 0x1A1 JUMPI DUP1 PUSH4 0xF88ADCCA EQ PUSH2 0x1C1 JUMPI PUSH1 0x0 DUP1 REVERT JUMPDEST DUP1 PUSH4 0x30E1A237 EQ PUSH2 0x8B JUMPI DUP1 PUSH4 0x529DCA32 EQ PUSH2 0xB6 JUMPI DUP1 PUSH4 0x84ACD1BB EQ PUSH2 0xCB JUMPI DUP1 PUSH4 0x8A28C31F EQ PUSH2 0x117 JUMPI JUMPDEST PUSH1 0x0 DUP1 REVERT JUMPDEST CALLVALUE DUP1 ISZERO PUSH2 0x97 JUMPI PUSH1 0x0 DUP1 REVERT JUMPDEST POP PUSH2 0xA0 PUSH2 0x1E1 JUMP JUMPDEST PUSH1 0x40 MLOAD PUSH2 0xAD SWAP2 SWAP1 PUSH2 0x8F8 JUMP JUMPDEST PUSH1 0x40 MLOAD DUP1 SWAP2 SUB SWAP1 RETURN JUMPDEST PUSH2 0xC9 PUSH2 0xC4 CALLDATASIZE PUSH1 0x4 PUSH2 0x9F6 JUMP JUMPDEST PUSH2 0x26F JUMP JUMPDEST STOP JUMPDEST CALLVALUE DUP1 ISZERO PUSH2 0xD7 JUMPI PUSH1 0x0 DUP1 REVERT JUMPDEST POP PUSH2 0xFF PUSH32 0x0 DUP2 JUMP JUMPDEST PUSH1 0x40 MLOAD PUSH1 0x1 PUSH1 0x1 PUSH1 0xA0 SHL SUB SWAP1 SWAP2 AND DUP2 MSTORE PUSH1 0x20 ADD PUSH2 0xAD JUMP JUMPDEST PUSH2 0xC9 PUSH2 0x125 CALLDATASIZE PUSH1 0x4 PUSH2 0xB17 JUMP JUMPDEST PUSH2 0x5BB JUMP JUMPDEST CALLVALUE DUP1 ISZERO PUSH2 0x136 JUMPI PUSH1 0x0 DUP1 REVERT JUMPDEST POP PUSH2 0xA0 PUSH2 0x6A8 JUMP JUMPDEST CALLVALUE DUP1 ISZERO PUSH2 0x14B JUMPI PUSH1 0x0 DUP1 REVERT JUMPDEST POP PUSH2 0x15F PUSH2 0x15A CALLDATASIZE PUSH1 0x4 PUSH2 0xB93 JUMP JUMPDEST PUSH2 0x6B5 JUMP JUMPDEST PUSH1 0x40 MLOAD SWAP1 DUP2 MSTORE PUSH1 0x20 ADD PUSH2 0xAD JUMP JUMPDEST CALLVALUE DUP1 ISZERO PUSH2 0x179 JUMPI PUSH1 0x0 DUP1 REVERT JUMPDEST POP PUSH2 0xFF PUSH32 0x0 DUP2 JUMP JUMPDEST CALLVALUE DUP1 ISZERO PUSH2 0x1AD JUMPI PUSH1 0x0 DUP1 REVERT JUMPDEST POP PUSH2 0xC9 PUSH2 0x1BC CALLDATASIZE PUSH1 0x4 PUSH2 0xBAE JUMP JUMPDEST PUSH2 0x759 JUMP JUMPDEST CALLVALUE DUP1 ISZERO PUSH2 0x1CD JUMPI PUSH1 0x0 DUP1 REVERT JUMPDEST POP PUSH2 0x15F PUSH2 0x1DC CALLDATASIZE PUSH1 0x4 PUSH2 0xBAE JUMP JUMPDEST PUSH2 0x7D6 JUMP JUMPDEST PUSH1 0x3 DUP1 SLOAD PUSH2 0x1EE SWAP1 PUSH2 0xBD8 JUMP JUMPDEST DUP1 PUSH1 0x1F ADD PUSH1 0x20 DUP1 SWAP2 DIV MUL PUSH1 0x20 ADD PUSH1 0x40 MLOAD SWAP1 DUP2 ADD PUSH1 0x40 MSTORE DUP1 SWAP3 SWAP2 SWAP1 DUP2 DUP2 MSTORE PUSH1 0x20 ADD DUP3 DUP1 SLOAD PUSH2 0x21A SWAP1 PUSH2 0xBD8 JUMP JUMPDEST DUP1 ISZERO PUSH2 0x267 JUMPI DUP1 PUSH1 0x1F LT PUSH2 0x23C JUMPI PUSH2 0x100 DUP1 DUP4 SLOAD DIV MUL DUP4 MSTORE SWAP2 PUSH1 0x20 ADD SWAP2 PUSH2 0x267 JUMP JUMPDEST DUP3 ADD SWAP2 SWAP1 PUSH1 0x0 MSTORE PUSH1 0x20 PUSH1 0x0 KECCAK256 SWAP1 JUMPDEST DUP2 SLOAD DUP2 MSTORE SWAP1 PUSH1 0x1 ADD SWAP1 PUSH1 0x20 ADD DUP1 DUP4 GT PUSH2 0x24A JUMPI DUP3 SWAP1 SUB PUSH1 0x1F AND DUP3 ADD SWAP2 JUMPDEST POP POP POP POP POP DUP2 JUMP JUMPDEST CALLER PUSH1 0x1 PUSH1 0x1 PUSH1 0xA0 SHL SUB PUSH32 0x0 AND EQ PUSH2 0x2F7 JUMPI PUSH1 0x40 MLOAD PUSH3 0x461BCD PUSH1 0xE5 SHL DUP2 MSTORE PUSH1 0x20 PUSH1 0x4 DUP3 ADD MSTORE PUSH1 0x22 PUSH1 0x24 DUP3 ADD MSTORE PUSH32 0x4D73672E73656E646572206973206E6F7420576F726D686F6C652052656C6179 PUSH1 0x44 DUP3 ADD MSTORE PUSH2 0x32B9 PUSH1 0xF1 SHL PUSH1 0x64 DUP3 ADD MSTORE PUSH1 0x84 ADD JUMPDEST PUSH1 0x40 MLOAD DUP1 SWAP2 SUB SWAP1 REVERT JUMPDEST PUSH2 0xFFFF DUP3 AND PUSH1 0x0 SWAP1 DUP2 MSTORE PUSH1 0x1 PUSH1 0x20 MSTORE PUSH1 0x40 SWAP1 KECCAK256 SLOAD DUP3 SWAP1 DUP5 SWAP1 DUP2 EQ PUSH2 0x355 JUMPI PUSH1 0x40 MLOAD PUSH3 0x461BCD PUSH1 0xE5 SHL DUP2 MSTORE PUSH1 0x20 PUSH1 0x4 DUP3 ADD MSTORE PUSH1 0x15 PUSH1 0x24 DUP3 ADD MSTORE PUSH21 0x2737BA103932B3B4B9BA32B932B21039B2B73232B9 PUSH1 0x59 SHL PUSH1 0x44 DUP3 ADD MSTORE PUSH1 0x64 ADD PUSH2 0x2EE JUMP JUMPDEST PUSH1 0x0 DUP8 DUP1 PUSH1 0x20 ADD SWAP1 MLOAD DUP2 ADD SWAP1 PUSH2 0x36B SWAP2 SWAP1 PUSH2 0xC21 JUMP JUMPDEST SWAP1 POP PUSH1 0x0 DUP2 PUSH1 0x1 DUP2 GT ISZERO PUSH2 0x381 JUMPI PUSH2 0x381 PUSH2 0xC3C JUMP JUMPDEST SUB PUSH2 0x533 JUMPI PUSH1 0x0 DUP1 DUP10 DUP1 PUSH1 0x20 ADD SWAP1 MLOAD DUP2 ADD SWAP1 PUSH2 0x39D SWAP2 SWAP1 PUSH2 0xC52 JUMP JUMPDEST SWAP1 SWAP4 POP SWAP2 POP PUSH1 0x2 SWAP1 POP PUSH2 0x3B0 DUP4 DUP3 PUSH2 0xD3B JUMP JUMPDEST POP PUSH32 0x5C4AB0CFB98525B63324629EB8C98352DEC2BECE203410170311B78405054676 PUSH1 0x2 DUP9 DUP4 PUSH1 0x40 MLOAD PUSH2 0x3E5 SWAP4 SWAP3 SWAP2 SWAP1 PUSH2 0xDFB JUMP JUMPDEST PUSH1 0x40 MLOAD DUP1 SWAP2 SUB SWAP1 LOG1 PUSH1 0x0 PUSH2 0x3F8 DUP9 PUSH2 0x6B5 JUMP JUMPDEST SWAP1 POP DUP1 CALLVALUE LT ISZERO PUSH2 0x463 JUMPI PUSH1 0x40 MLOAD PUSH3 0x461BCD PUSH1 0xE5 SHL DUP2 MSTORE PUSH1 0x20 PUSH1 0x4 DUP3 ADD MSTORE PUSH1 0x30 PUSH1 0x24 DUP3 ADD MSTORE PUSH32 0x4469646E2774207265636569766520656E6F7567682076616C756520666F7220 PUSH1 0x44 DUP3 ADD MSTORE PUSH16 0x746865207365636F6E642073656E6421 PUSH1 0x80 SHL PUSH1 0x64 DUP3 ADD MSTORE PUSH1 0x84 ADD PUSH2 0x2EE JUMP JUMPDEST PUSH32 0x0 PUSH1 0x1 PUSH1 0x1 PUSH1 0xA0 SHL SUB AND PUSH4 0x8FECDD02 DUP3 DUP11 PUSH2 0x49D DUP14 PUSH2 0x87C JUMP JUMPDEST PUSH1 0x1 DUP9 DUP9 PUSH1 0x40 MLOAD PUSH1 0x20 ADD PUSH2 0x4B3 SWAP4 SWAP3 SWAP2 SWAP1 PUSH2 0xEA2 JUMP JUMPDEST PUSH1 0x40 MLOAD PUSH1 0x20 DUP2 DUP4 SUB SUB DUP2 MSTORE SWAP1 PUSH1 0x40 MSTORE PUSH1 0x0 PUSH2 0xC350 PUSH1 0x40 MLOAD DUP8 PUSH4 0xFFFFFFFF AND PUSH1 0xE0 SHL DUP2 MSTORE PUSH1 0x4 ADD PUSH2 0x4E7 SWAP6 SWAP5 SWAP4 SWAP3 SWAP2 SWAP1 PUSH2 0xEF1 JUMP JUMPDEST PUSH1 0x20 PUSH1 0x40 MLOAD DUP1 DUP4 SUB DUP2 DUP6 DUP9 GAS CALL ISZERO DUP1 ISZERO PUSH2 0x505 JUMPI RETURNDATASIZE PUSH1 0x0 DUP1 RETURNDATACOPY RETURNDATASIZE PUSH1 0x0 REVERT JUMPDEST POP POP POP POP POP PUSH1 0x40 MLOAD RETURNDATASIZE PUSH1 0x1F NOT PUSH1 0x1F DUP3 ADD AND DUP3 ADD DUP1 PUSH1 0x40 MSTORE POP DUP2 ADD SWAP1 PUSH2 0x52A SWAP2 SWAP1 PUSH2 0xF33 JUMP JUMPDEST POP POP POP POP PUSH2 0x5B1 JUMP JUMPDEST PUSH1 0x1 DUP2 PUSH1 0x1 DUP2 GT ISZERO PUSH2 0x547 JUMPI PUSH2 0x547 PUSH2 0xC3C JUMP JUMPDEST SUB PUSH2 0x5B1 JUMPI PUSH1 0x0 DUP1 DUP10 DUP1 PUSH1 0x20 ADD SWAP1 MLOAD DUP2 ADD SWAP1 PUSH2 0x563 SWAP2 SWAP1 PUSH2 0xC52 JUMP JUMPDEST SWAP3 POP SWAP3 POP POP PUSH32 0x6AA04BB8658FED64F72B804AA21B2EF8EC8C344788D23DDA61FC51254F407D3E DUP3 DUP3 PUSH1 0x40 MLOAD PUSH2 0x599 SWAP3 SWAP2 SWAP1 PUSH2 0xF5D JUMP JUMPDEST PUSH1 0x40 MLOAD DUP1 SWAP2 SUB SWAP1 LOG1 PUSH1 0x3 PUSH2 0x5AD DUP4 DUP3 PUSH2 0xD3B JUMP JUMPDEST POP POP POP JUMPDEST POP POP POP POP POP POP POP POP JUMP JUMPDEST PUSH1 0x0 PUSH2 0x5C7 DUP6 DUP4 PUSH2 0x7D6 JUMP JUMPDEST SWAP1 POP DUP1 CALLVALUE EQ PUSH2 0x5D5 JUMPI PUSH1 0x0 DUP1 REVERT JUMPDEST PUSH32 0x0 PUSH1 0x1 PUSH1 0x1 PUSH1 0xA0 SHL SUB AND PUSH4 0x4B5CA6F4 DUP3 DUP8 DUP8 PUSH1 0x0 DUP9 CALLER PUSH1 0x40 MLOAD PUSH1 0x20 ADD PUSH2 0x61D SWAP4 SWAP3 SWAP2 SWAP1 PUSH2 0xEA2 JUMP JUMPDEST PUSH1 0x40 DUP1 MLOAD PUSH1 0x1F NOT DUP2 DUP5 SUB ADD DUP2 MSTORE SWAP1 DUP3 SWAP1 MSTORE PUSH1 0x4 DUP1 SLOAD PUSH1 0x1 PUSH1 0x1 PUSH1 0xE0 SHL SUB NOT PUSH1 0xE0 DUP10 SWAP1 SHL AND DUP5 MSTORE PUSH2 0x65D SWAP6 SWAP5 SWAP4 DUP12 SWAP3 PUSH3 0x86470 SWAP3 PUSH2 0xFFFF AND SWAP2 CALLER SWAP2 ADD PUSH2 0xF87 JUMP JUMPDEST PUSH1 0x20 PUSH1 0x40 MLOAD DUP1 DUP4 SUB DUP2 DUP6 DUP9 GAS CALL ISZERO DUP1 ISZERO PUSH2 0x67B JUMPI RETURNDATASIZE PUSH1 0x0 DUP1 RETURNDATACOPY RETURNDATASIZE PUSH1 0x0 REVERT JUMPDEST POP POP POP POP POP PUSH1 0x40 MLOAD RETURNDATASIZE PUSH1 0x1F NOT PUSH1 0x1F DUP3 ADD AND DUP3 ADD DUP1 PUSH1 0x40 MSTORE POP DUP2 ADD SWAP1 PUSH2 0x6A0 SWAP2 SWAP1 PUSH2 0xF33 JUMP JUMPDEST POP POP POP POP POP POP JUMP JUMPDEST PUSH1 0x2 DUP1 SLOAD PUSH2 0x1EE SWAP1 PUSH2 0xBD8 JUMP JUMPDEST PUSH1 0x40 MLOAD PUSH4 0xC23EE3C3 PUSH1 0xE0 SHL DUP2 MSTORE PUSH2 0xFFFF DUP3 AND PUSH1 0x4 DUP3 ADD MSTORE PUSH1 0x0 PUSH1 0x24 DUP3 ADD DUP2 SWAP1 MSTORE PUSH2 0xC350 PUSH1 0x44 DUP4 ADD MSTORE SWAP1 PUSH32 0x0 PUSH1 0x1 PUSH1 0x1 PUSH1 0xA0 SHL SUB AND SWAP1 PUSH4 0xC23EE3C3 SWAP1 PUSH1 0x64 ADD PUSH1 0x40 DUP1 MLOAD DUP1 DUP4 SUB DUP2 DUP7 GAS STATICCALL ISZERO DUP1 ISZERO PUSH2 0x72E JUMPI RETURNDATASIZE PUSH1 0x0 DUP1 RETURNDATACOPY RETURNDATASIZE PUSH1 0x0 REVERT JUMPDEST POP POP POP POP PUSH1 0x40 MLOAD RETURNDATASIZE PUSH1 0x1F NOT PUSH1 0x1F DUP3 ADD AND DUP3 ADD DUP1 PUSH1 0x40 MSTORE POP DUP2 ADD SWAP1 PUSH2 0x752 SWAP2 SWAP1 PUSH2 0xFE0 JUMP JUMPDEST POP SWAP3 SWAP2 POP POP JUMP JUMPDEST PUSH1 0x0 SLOAD PUSH1 0x1 PUSH1 0x1 PUSH1 0xA0 SHL SUB AND CALLER EQ PUSH2 0x7BF JUMPI PUSH1 0x40 MLOAD PUSH3 0x461BCD PUSH1 0xE5 SHL DUP2 MSTORE PUSH1 0x20 PUSH1 0x4 DUP3 ADD MSTORE PUSH1 0x24 DUP1 DUP3 ADD MSTORE PUSH32 0x4E6F7420616C6C6F77656420746F207365742072656769737465726564207365 PUSH1 0x44 DUP3 ADD MSTORE PUSH4 0x373232B9 PUSH1 0xE1 SHL PUSH1 0x64 DUP3 ADD MSTORE PUSH1 0x84 ADD PUSH2 0x2EE JUMP JUMPDEST PUSH2 0xFFFF SWAP1 SWAP2 AND PUSH1 0x0 SWAP1 DUP2 MSTORE PUSH1 0x1 PUSH1 0x20 MSTORE PUSH1 0x40 SWAP1 KECCAK256 SSTORE JUMP JUMPDEST PUSH1 0x40 MLOAD PUSH4 0xC23EE3C3 PUSH1 0xE0 SHL DUP2 MSTORE PUSH2 0xFFFF DUP4 AND PUSH1 0x4 DUP3 ADD MSTORE PUSH1 0x24 DUP2 ADD DUP3 SWAP1 MSTORE PUSH3 0x86470 PUSH1 0x44 DUP3 ADD MSTORE PUSH1 0x0 SWAP1 PUSH32 0x0 PUSH1 0x1 PUSH1 0x1 PUSH1 0xA0 SHL SUB AND SWAP1 PUSH4 0xC23EE3C3 SWAP1 PUSH1 0x64 ADD PUSH1 0x40 DUP1 MLOAD DUP1 DUP4 SUB DUP2 DUP7 GAS STATICCALL ISZERO DUP1 ISZERO PUSH2 0x850 JUMPI RETURNDATASIZE PUSH1 0x0 DUP1 RETURNDATACOPY RETURNDATASIZE PUSH1 0x0 REVERT JUMPDEST POP POP POP POP PUSH1 0x40 MLOAD RETURNDATASIZE PUSH1 0x1F NOT PUSH1 0x1F DUP3 ADD AND DUP3 ADD DUP1 PUSH1 0x40 MSTORE POP DUP2 ADD SWAP1 PUSH2 0x874 SWAP2 SWAP1 PUSH2 0xFE0 JUMP JUMPDEST POP SWAP4 SWAP3 POP POP POP JUMP JUMPDEST PUSH1 0x0 PUSH1 0xA0 DUP3 SWAP1 SHR ISZERO PUSH2 0x8A4 JUMPI PUSH1 0x40 MLOAD PUSH4 0x33B960D PUSH1 0xE4 SHL DUP2 MSTORE PUSH1 0x4 DUP2 ADD DUP4 SWAP1 MSTORE PUSH1 0x24 ADD PUSH2 0x2EE JUMP JUMPDEST POP SWAP1 JUMP JUMPDEST PUSH1 0x0 JUMPDEST DUP4 DUP2 LT ISZERO PUSH2 0x8C3 JUMPI DUP2 DUP2 ADD MLOAD DUP4 DUP3 ADD MSTORE PUSH1 0x20 ADD PUSH2 0x8AB JUMP JUMPDEST POP POP PUSH1 0x0 SWAP2 ADD MSTORE JUMP JUMPDEST PUSH1 0x0 DUP2 MLOAD DUP1 DUP5 MSTORE PUSH2 0x8E4 DUP2 PUSH1 0x20 DUP7 ADD PUSH1 0x20 DUP7 ADD PUSH2 0x8A8 JUMP JUMPDEST PUSH1 0x1F ADD PUSH1 0x1F NOT AND SWAP3 SWAP1 SWAP3 ADD PUSH1 0x20 ADD SWAP3 SWAP2 POP POP JUMP JUMPDEST PUSH1 0x20 DUP2 MSTORE PUSH1 0x0 PUSH2 0x90B PUSH1 0x20 DUP4 ADD DUP5 PUSH2 0x8CC JUMP JUMPDEST SWAP4 SWAP3 POP POP POP JUMP JUMPDEST PUSH4 0x4E487B71 PUSH1 0xE0 SHL PUSH1 0x0 MSTORE PUSH1 0x41 PUSH1 0x4 MSTORE PUSH1 0x24 PUSH1 0x0 REVERT JUMPDEST PUSH1 0x40 MLOAD PUSH1 0x1F DUP3 ADD PUSH1 0x1F NOT AND DUP2 ADD PUSH8 0xFFFFFFFFFFFFFFFF DUP2 GT DUP3 DUP3 LT OR ISZERO PUSH2 0x951 JUMPI PUSH2 0x951 PUSH2 0x912 JUMP JUMPDEST PUSH1 0x40 MSTORE SWAP2 SWAP1 POP JUMP JUMPDEST PUSH1 0x0 PUSH8 0xFFFFFFFFFFFFFFFF DUP3 GT ISZERO PUSH2 0x973 JUMPI PUSH2 0x973 PUSH2 0x912 JUMP JUMPDEST POP PUSH1 0x1F ADD PUSH1 0x1F NOT AND PUSH1 0x20 ADD SWAP1 JUMP JUMPDEST PUSH1 0x0 PUSH2 0x994 PUSH2 0x98F DUP5 PUSH2 0x959 JUMP JUMPDEST PUSH2 0x928 JUMP JUMPDEST SWAP1 POP DUP3 DUP2 MSTORE DUP4 DUP4 DUP4 ADD GT ISZERO PUSH2 0x9A8 JUMPI PUSH1 0x0 DUP1 REVERT JUMPDEST DUP3 DUP3 PUSH1 0x20 DUP4 ADD CALLDATACOPY PUSH1 0x0 PUSH1 0x20 DUP5 DUP4 ADD ADD MSTORE SWAP4 SWAP3 POP POP POP JUMP JUMPDEST PUSH1 0x0 DUP3 PUSH1 0x1F DUP4 ADD SLT PUSH2 0x9D0 JUMPI PUSH1 0x0 DUP1 REVERT JUMPDEST PUSH2 0x90B DUP4 DUP4 CALLDATALOAD PUSH1 0x20 DUP6 ADD PUSH2 0x981 JUMP JUMPDEST DUP1 CALLDATALOAD PUSH2 0xFFFF DUP2 AND DUP2 EQ PUSH2 0x9F1 JUMPI PUSH1 0x0 DUP1 REVERT JUMPDEST SWAP2 SWAP1 POP JUMP JUMPDEST PUSH1 0x0 DUP1 PUSH1 0x0 DUP1 PUSH1 0x0 PUSH1 0xA0 DUP7 DUP9 SUB SLT ISZERO PUSH2 0xA0E JUMPI PUSH1 0x0 DUP1 REVERT JUMPDEST DUP6 CALLDATALOAD PUSH8 0xFFFFFFFFFFFFFFFF DUP1 DUP3 GT ISZERO PUSH2 0xA26 JUMPI PUSH1 0x0 DUP1 REVERT JUMPDEST PUSH2 0xA32 DUP10 DUP4 DUP11 ADD PUSH2 0x9BF JUMP JUMPDEST SWAP7 POP PUSH1 0x20 SWAP2 POP DUP2 DUP9 ADD CALLDATALOAD DUP2 DUP2 GT ISZERO PUSH2 0xA49 JUMPI PUSH1 0x0 DUP1 REVERT JUMPDEST DUP9 ADD PUSH1 0x1F DUP2 ADD DUP11 SGT PUSH2 0xA5A JUMPI PUSH1 0x0 DUP1 REVERT JUMPDEST DUP1 CALLDATALOAD DUP3 DUP2 GT ISZERO PUSH2 0xA6C JUMPI PUSH2 0xA6C PUSH2 0x912 JUMP JUMPDEST DUP1 PUSH1 0x5 SHL PUSH2 0xA7B DUP6 DUP3 ADD PUSH2 0x928 JUMP JUMPDEST SWAP2 DUP3 MSTORE DUP3 DUP2 ADD DUP6 ADD SWAP2 DUP6 DUP2 ADD SWAP1 DUP14 DUP5 GT ISZERO PUSH2 0xA95 JUMPI PUSH1 0x0 DUP1 REVERT JUMPDEST DUP7 DUP6 ADD SWAP3 POP JUMPDEST DUP4 DUP4 LT ISZERO PUSH2 0xAD1 JUMPI DUP3 CALLDATALOAD DUP7 DUP2 GT ISZERO PUSH2 0xAB3 JUMPI PUSH1 0x0 DUP1 DUP2 REVERT JUMPDEST PUSH2 0xAC1 DUP16 DUP10 DUP4 DUP10 ADD ADD PUSH2 0x9BF JUMP JUMPDEST DUP4 MSTORE POP SWAP2 DUP7 ADD SWAP2 SWAP1 DUP7 ADD SWAP1 PUSH2 0xA9B JUMP JUMPDEST DUP1 SWAP11 POP POP POP POP POP POP POP POP PUSH1 0x40 DUP7 ADD CALLDATALOAD SWAP3 POP PUSH2 0xAEE PUSH1 0x60 DUP8 ADD PUSH2 0x9DF JUMP JUMPDEST SWAP5 SWAP8 SWAP4 SWAP7 POP SWAP2 SWAP5 PUSH1 0x80 ADD CALLDATALOAD SWAP3 SWAP2 POP POP JUMP JUMPDEST PUSH1 0x1 PUSH1 0x1 PUSH1 0xA0 SHL SUB DUP2 AND DUP2 EQ PUSH2 0xB14 JUMPI PUSH1 0x0 DUP1 REVERT JUMPDEST POP JUMP JUMPDEST PUSH1 0x0 DUP1 PUSH1 0x0 DUP1 PUSH1 0x80 DUP6 DUP8 SUB SLT ISZERO PUSH2 0xB2D JUMPI PUSH1 0x0 DUP1 REVERT JUMPDEST PUSH2 0xB36 DUP6 PUSH2 0x9DF JUMP JUMPDEST SWAP4 POP PUSH1 0x20 DUP6 ADD CALLDATALOAD PUSH2 0xB46 DUP2 PUSH2 0xAFF JUMP JUMPDEST SWAP3 POP PUSH1 0x40 DUP6 ADD CALLDATALOAD PUSH8 0xFFFFFFFFFFFFFFFF DUP2 GT ISZERO PUSH2 0xB62 JUMPI PUSH1 0x0 DUP1 REVERT JUMPDEST DUP6 ADD PUSH1 0x1F DUP2 ADD DUP8 SGT PUSH2 0xB73 JUMPI PUSH1 0x0 DUP1 REVERT JUMPDEST PUSH2 0xB82 DUP8 DUP3 CALLDATALOAD PUSH1 0x20 DUP5 ADD PUSH2 0x981 JUMP JUMPDEST SWAP5 SWAP8 SWAP4 SWAP7 POP SWAP4 SWAP5 PUSH1 0x60 ADD CALLDATALOAD SWAP4 POP POP POP JUMP JUMPDEST PUSH1 0x0 PUSH1 0x20 DUP3 DUP5 SUB SLT ISZERO PUSH2 0xBA5 JUMPI PUSH1 0x0 DUP1 REVERT JUMPDEST PUSH2 0x90B DUP3 PUSH2 0x9DF JUMP JUMPDEST PUSH1 0x0 DUP1 PUSH1 0x40 DUP4 DUP6 SUB SLT ISZERO PUSH2 0xBC1 JUMPI PUSH1 0x0 DUP1 REVERT JUMPDEST PUSH2 0xBCA DUP4 PUSH2 0x9DF JUMP JUMPDEST SWAP5 PUSH1 0x20 SWAP4 SWAP1 SWAP4 ADD CALLDATALOAD SWAP4 POP POP POP JUMP JUMPDEST PUSH1 0x1 DUP2 DUP2 SHR SWAP1 DUP3 AND DUP1 PUSH2 0xBEC JUMPI PUSH1 0x7F DUP3 AND SWAP2 POP JUMPDEST PUSH1 0x20 DUP3 LT DUP2 SUB PUSH2 0xC0C JUMPI PUSH4 0x4E487B71 PUSH1 0xE0 SHL PUSH1 0x0 MSTORE PUSH1 0x22 PUSH1 0x4 MSTORE PUSH1 0x24 PUSH1 0x0 REVERT JUMPDEST POP SWAP2 SWAP1 POP JUMP JUMPDEST DUP1 MLOAD PUSH1 0x2 DUP2 LT PUSH2 0x9F1 JUMPI PUSH1 0x0 DUP1 REVERT JUMPDEST PUSH1 0x0 PUSH1 0x20 DUP3 DUP5 SUB SLT ISZERO PUSH2 0xC33 JUMPI PUSH1 0x0 DUP1 REVERT JUMPDEST PUSH2 0x90B DUP3 PUSH2 0xC12 JUMP JUMPDEST PUSH4 0x4E487B71 PUSH1 0xE0 SHL PUSH1 0x0 MSTORE PUSH1 0x21 PUSH1 0x4 MSTORE PUSH1 0x24 PUSH1 0x0 REVERT JUMPDEST PUSH1 0x0 DUP1 PUSH1 0x0 PUSH1 0x60 DUP5 DUP7 SUB SLT ISZERO PUSH2 0xC67 JUMPI PUSH1 0x0 DUP1 REVERT JUMPDEST PUSH2 0xC70 DUP5 PUSH2 0xC12 JUMP JUMPDEST SWAP3 POP PUSH1 0x20 DUP5 ADD MLOAD PUSH8 0xFFFFFFFFFFFFFFFF DUP2 GT ISZERO PUSH2 0xC8C JUMPI PUSH1 0x0 DUP1 REVERT JUMPDEST DUP5 ADD PUSH1 0x1F DUP2 ADD DUP7 SGT PUSH2 0xC9D JUMPI PUSH1 0x0 DUP1 REVERT JUMPDEST DUP1 MLOAD PUSH2 0xCAB PUSH2 0x98F DUP3 PUSH2 0x959 JUMP JUMPDEST DUP2 DUP2 MSTORE DUP8 PUSH1 0x20 DUP4 DUP6 ADD ADD GT ISZERO PUSH2 0xCC0 JUMPI PUSH1 0x0 DUP1 REVERT JUMPDEST PUSH2 0xCD1 DUP3 PUSH1 0x20 DUP4 ADD PUSH1 0x20 DUP7 ADD PUSH2 0x8A8 JUMP JUMPDEST DUP1 SWAP5 POP POP POP POP PUSH1 0x40 DUP5 ADD MLOAD PUSH2 0xCE5 DUP2 PUSH2 0xAFF JUMP JUMPDEST DUP1 SWAP2 POP POP SWAP3 POP SWAP3 POP SWAP3 JUMP JUMPDEST PUSH1 0x1F DUP3 GT ISZERO PUSH2 0xD36 JUMPI PUSH1 0x0 DUP2 DUP2 MSTORE PUSH1 0x20 DUP2 KECCAK256 PUSH1 0x1F DUP6 ADD PUSH1 0x5 SHR DUP2 ADD PUSH1 0x20 DUP7 LT ISZERO PUSH2 0xD17 JUMPI POP DUP1 JUMPDEST PUSH1 0x1F DUP6 ADD PUSH1 0x5 SHR DUP3 ADD SWAP2 POP JUMPDEST DUP2 DUP2 LT ISZERO PUSH2 0x6A0 JUMPI DUP3 DUP2 SSTORE PUSH1 0x1 ADD PUSH2 0xD23 JUMP JUMPDEST POP POP POP JUMP JUMPDEST DUP2 MLOAD PUSH8 0xFFFFFFFFFFFFFFFF DUP2 GT ISZERO PUSH2 0xD55 JUMPI PUSH2 0xD55 PUSH2 0x912 JUMP JUMPDEST PUSH2 0xD69 DUP2 PUSH2 0xD63 DUP5 SLOAD PUSH2 0xBD8 JUMP JUMPDEST DUP5 PUSH2 0xCF0 JUMP JUMPDEST PUSH1 0x20 DUP1 PUSH1 0x1F DUP4 GT PUSH1 0x1 DUP2 EQ PUSH2 0xD9E JUMPI PUSH1 0x0 DUP5 ISZERO PUSH2 0xD86 JUMPI POP DUP6 DUP4 ADD MLOAD JUMPDEST PUSH1 0x0 NOT PUSH1 0x3 DUP7 SWAP1 SHL SHR NOT AND PUSH1 0x1 DUP6 SWAP1 SHL OR DUP6 SSTORE PUSH2 0x6A0 JUMP JUMPDEST PUSH1 0x0 DUP6 DUP2 MSTORE PUSH1 0x20 DUP2 KECCAK256 PUSH1 0x1F NOT DUP7 AND SWAP2 JUMPDEST DUP3 DUP2 LT ISZERO PUSH2 0xDCD JUMPI DUP9 DUP7 ADD MLOAD DUP3 SSTORE SWAP5 DUP5 ADD SWAP5 PUSH1 0x1 SWAP1 SWAP2 ADD SWAP1 DUP5 ADD PUSH2 0xDAE JUMP JUMPDEST POP DUP6 DUP3 LT ISZERO PUSH2 0xDEB JUMPI DUP8 DUP6 ADD MLOAD PUSH1 0x0 NOT PUSH1 0x3 DUP9 SWAP1 SHL PUSH1 0xF8 AND SHR NOT AND DUP2 SSTORE JUMPDEST POP POP POP POP POP PUSH1 0x1 SWAP1 DUP2 SHL ADD SWAP1 SSTORE POP JUMP JUMPDEST PUSH1 0x60 DUP2 MSTORE PUSH1 0x0 DUP1 DUP6 SLOAD PUSH2 0xE0D DUP2 PUSH2 0xBD8 JUMP JUMPDEST DUP1 PUSH1 0x60 DUP7 ADD MSTORE PUSH1 0x80 PUSH1 0x1 DUP1 DUP5 AND PUSH1 0x0 DUP2 EQ PUSH2 0xE2F JUMPI PUSH1 0x1 DUP2 EQ PUSH2 0xE49 JUMPI PUSH2 0xE7A JUMP JUMPDEST PUSH1 0xFF NOT DUP6 AND DUP9 DUP5 ADD MSTORE DUP4 ISZERO ISZERO PUSH1 0x5 SHL DUP9 ADD DUP4 ADD SWAP6 POP PUSH2 0xE7A JUMP JUMPDEST DUP11 PUSH1 0x0 MSTORE PUSH1 0x20 DUP1 PUSH1 0x0 KECCAK256 PUSH1 0x0 JUMPDEST DUP7 DUP2 LT ISZERO PUSH2 0xE71 JUMPI DUP2 SLOAD DUP12 DUP3 ADD DUP8 ADD MSTORE SWAP1 DUP5 ADD SWAP1 DUP3 ADD PUSH2 0xE56 JUMP JUMPDEST DUP11 ADD DUP6 ADD SWAP8 POP POP POP JUMPDEST POP POP POP POP PUSH2 0xFFFF DUP7 AND PUSH1 0x20 DUP6 ADD MSTORE POP SWAP1 POP PUSH1 0x1 PUSH1 0x1 PUSH1 0xA0 SHL SUB DUP4 AND PUSH1 0x40 DUP4 ADD MSTORE SWAP5 SWAP4 POP POP POP POP JUMP JUMPDEST PUSH1 0x0 PUSH1 0x2 DUP6 LT PUSH2 0xEC2 JUMPI PUSH4 0x4E487B71 PUSH1 0xE0 SHL PUSH1 0x0 MSTORE PUSH1 0x21 PUSH1 0x4 MSTORE PUSH1 0x24 PUSH1 0x0 REVERT JUMPDEST DUP5 DUP3 MSTORE PUSH1 0x60 PUSH1 0x20 DUP4 ADD MSTORE PUSH2 0xED9 PUSH1 0x60 DUP4 ADD DUP6 PUSH2 0x8CC JUMP JUMPDEST SWAP1 POP PUSH1 0x1 DUP1 PUSH1 0xA0 SHL SUB DUP4 AND PUSH1 0x40 DUP4 ADD MSTORE SWAP5 SWAP4 POP POP POP POP JUMP JUMPDEST PUSH2 0xFFFF DUP7 AND DUP2 MSTORE PUSH1 0x1 PUSH1 0x1 PUSH1 0xA0 SHL SUB DUP6 AND PUSH1 0x20 DUP3 ADD MSTORE PUSH1 0xA0 PUSH1 0x40 DUP3 ADD DUP2 SWAP1 MSTORE PUSH1 0x0 SWAP1 PUSH2 0xF1F SWAP1 DUP4 ADD DUP7 PUSH2 0x8CC JUMP JUMPDEST PUSH1 0x60 DUP4 ADD SWAP5 SWAP1 SWAP5 MSTORE POP PUSH1 0x80 ADD MSTORE SWAP4 SWAP3 POP POP POP JUMP JUMPDEST PUSH1 0x0 PUSH1 0x20 DUP3 DUP5 SUB SLT ISZERO PUSH2 0xF45 JUMPI PUSH1 0x0 DUP1 REVERT JUMPDEST DUP2 MLOAD PUSH8 0xFFFFFFFFFFFFFFFF DUP2 AND DUP2 EQ PUSH2 0x90B JUMPI PUSH1 0x0 DUP1 REVERT JUMPDEST PUSH1 0x40 DUP2 MSTORE PUSH1 0x0 PUSH2 0xF70 PUSH1 0x40 DUP4 ADD DUP6 PUSH2 0x8CC JUMP JUMPDEST SWAP1 POP PUSH1 0x1 DUP1 PUSH1 0xA0 SHL SUB DUP4 AND PUSH1 0x20 DUP4 ADD MSTORE SWAP4 SWAP3 POP POP POP JUMP JUMPDEST PUSH1 0x0 PUSH2 0xFFFF DUP1 DUP11 AND DUP4 MSTORE PUSH1 0x1 DUP1 PUSH1 0xA0 SHL SUB DUP1 DUP11 AND PUSH1 0x20 DUP6 ADD MSTORE PUSH1 0xE0 PUSH1 0x40 DUP6 ADD MSTORE PUSH2 0xFB4 PUSH1 0xE0 DUP6 ADD DUP11 PUSH2 0x8CC JUMP JUMPDEST SWAP3 POP DUP8 PUSH1 0x60 DUP6 ADD MSTORE DUP7 PUSH1 0x80 DUP6 ADD MSTORE DUP2 DUP7 AND PUSH1 0xA0 DUP6 ADD MSTORE DUP1 DUP6 AND PUSH1 0xC0 DUP6 ADD MSTORE POP POP SWAP9 SWAP8 POP POP POP POP POP POP POP POP JUMP JUMPDEST PUSH1 0x0 DUP1 PUSH1 0x40 DUP4 DUP6 SUB SLT ISZERO PUSH2 0xFF3 JUMPI PUSH1 0x0 DUP1 REVERT JUMPDEST POP POP DUP1 MLOAD PUSH1 0x20 SWAP1 SWAP2 ADD MLOAD SWAP1 SWAP3 SWAP1 SWAP2 POP JUMP INVALID LOG2 PUSH5 0x6970667358 0x22 SLT KECCAK256 0xB0 CALLDATASIZE MSTORE8 DUP16 0xD5 0xAE CODESIZE RETURNDATASIZE 0xCB EXTCODESIZE 0x2B REVERT 0x4B MSIZE 0xF8 GAS BYTE 0x2C DUP4 MSTORE8 JUMPI SELFDESTRUCT SIGNEXTEND RETURNDATACOPY SWAP16 0xEE 0xAB EQ 0x26 BASEFEE 0xD6 0xE1 PUSH5 0x736F6C6343 STOP ADDMOD EQ STOP CALLER "},"methodIdentifiers":{"latestConfirmedSentGreeting()":"30e1a237","latestGreeting()":"921b58a9","quoteConfirmation(uint16)":"a78de30b","quoteCrossChainGreeting(uint16,uint256)":"f88adcca","receiveWormholeMessages(bytes,bytes[],bytes32,uint16,bytes32)":"529dca32","sendCrossChainGreeting(uint16,address,string,uint256)":"8a28c31f","setRegisteredSender(uint16,bytes32)":"dd12d68b","wormhole()":"84acd1bb","wormholeRelayer()":"da25b725"}}}}}