{"contracts/extensions/HelloWormholeRefunds.sol":{"HelloWormholeRefunds":{"abi":[{"inputs":[{"internalType":"address","name":"_wormholeRelayer","type":"address"}],"stateMutability":"nonpayable","type":"constructor"},{"anonymous":false,"inputs":[{"indexed":false,"internalType":"string","name":"greeting","type":"string"},{"indexed":false,"internalType":"uint16","name":"senderChain","type":"uint16"},{"indexed":false,"internalType":"address","name":"sender","type":"address"}],"name":"GreetingReceived","type":"event"},{"inputs":[],"name":"latestGreeting","outputs":[{"internalType":"string","name":"","type":"string"}],"stateMutability":"view","type":"function"},{"inputs":[{"internalType":"uint16","name":"targetChain","type":"uint16"}],"name":"quoteCrossChainGreeting","outputs":[{"internalType":"uint256","name":"cost","type":"uint256"}],"stateMutability":"view","type":"function"},{"inputs":[{"internalType":"uint16","name":"targetChain","type":"uint16"}],"name":"quoteCrossChainGreetingRefundPerUnitGasUnused","outputs":[{"internalType":"uint256","name":"refundPerUnitGasUnused","type":"uint256"}],"stateMutability":"view","type":"function"},{"inputs":[{"internalType":"bytes","name":"payload","type":"bytes"},{"internalType":"bytes[]","name":"","type":"bytes[]"},{"internalType":"bytes32","name":"","type":"bytes32"},{"internalType":"uint16","name":"sourceChain","type":"uint16"},{"internalType":"bytes32","name":"","type":"bytes32"}],"name":"receiveWormholeMessages","outputs":[],"stateMutability":"payable","type":"function"},{"inputs":[{"internalType":"uint16","name":"targetChain","type":"uint16"},{"internalType":"address","name":"targetAddress","type":"address"},{"internalType":"string","name":"greeting","type":"string"},{"internalType":"uint16","name":"refundChain","type":"uint16"},{"internalType":"address","name":"refundAddress","type":"address"}],"name":"sendCrossChainGreeting","outputs":[],"stateMutability":"payable","type":"function"},{"inputs":[],"name":"wormholeRelayer","outputs":[{"internalType":"contract IWormholeRelayer","name":"","type":"address"}],"stateMutability":"view","type":"function"}],"evm":{"bytecode":{"linkReferences":{},"object":"60a060405234801561001057600080fd5b50604051610c28380380610c2883398101604081905261002f91610040565b6001600160a01b0316608052610070565b60006020828403121561005257600080fd5b81516001600160a01b038116811461006957600080fd5b9392505050565b608051610b816100a7600039600081816101090152818161016f01528181610203015281816102d601526103d80152610b816000f3fe6080604052600436106100555760003560e01c806328bd75ce1461005a57806345328ab91461008d578063529dca32146100a257806370602a1f146100b5578063921b58a9146100d5578063da25b725146100f7575b600080fd5b34801561006657600080fd5b5061007a6100753660046104f6565b610143565b6040519081526020015b60405180910390f35b6100a061009b3660046105d6565b6101e8565b005b6100a06100b0366004610690565b6102cb565b3480156100c157600080fd5b5061007a6100d03660046104f6565b6103ac565b3480156100e157600080fd5b506100ea610451565b60405161008491906107e9565b34801561010357600080fd5b5061012b7f000000000000000000000000000000000000000000000000000000000000000081565b6040516001600160a01b039091168152602001610084565b60405163c23ee3c360e01b815261ffff821660048201526000602482018190526207a1206044830152907f00000000000000000000000000000000000000000000000000000000000000006001600160a01b03169063c23ee3c3906064016040805180830381865afa1580156101bd573d6000803e3d6000fd5b505050506040513d601f19601f820116820180604052508101906101e191906107fc565b5092915050565b60006101f386610143565b905080341461020157600080fd5b7f00000000000000000000000000000000000000000000000000000000000000006001600160a01b0316634b5ca6f48288888833604051602001610246929190610820565b60405160208183030381529060405260006207a1208a8a6040518963ffffffff1660e01b815260040161027f979695949392919061084a565b60206040518083038185885af115801561029d573d6000803e3d6000fd5b50505050506040513d601f19601f820116820180604052508101906102c291906108a3565b50505050505050565b336001600160a01b037f0000000000000000000000000000000000000000000000000000000000000000161461033e5760405162461bcd60e51b815260206004820152601460248201527313db9b1e481c995b185e595c88185b1b1bddd95960621b604482015260640160405180910390fd5b6000808680602001905181019061035591906108cd565b9092509050600061036683826109e4565b507f5c4ab0cfb98525b63324629eb8c98352dec2bece203410170311b784050546766000858360405161039b93929190610aa4565b60405180910390a150505050505050565b60405163c23ee3c360e01b815261ffff821660048201526000602482018190526207a1206044830152907f00000000000000000000000000000000000000000000000000000000000000006001600160a01b03169063c23ee3c3906064016040805180830381865afa158015610426573d6000803e3d6000fd5b505050506040513d601f19601f8201168201806040525081019061044a91906107fc565b9392505050565b6000805461045e9061095b565b80601f016020809104026020016040519081016040528092919081815260200182805461048a9061095b565b80156104d75780601f106104ac576101008083540402835291602001916104d7565b820191906000526020600020905b8154815290600101906020018083116104ba57829003601f168201915b505050505081565b803561ffff811681146104f157600080fd5b919050565b60006020828403121561050857600080fd5b61044a826104df565b6001600160a01b038116811461052657600080fd5b50565b634e487b7160e01b600052604160045260246000fd5b604051601f8201601f1916810167ffffffffffffffff8111828210171561056857610568610529565b604052919050565b600067ffffffffffffffff82111561058a5761058a610529565b50601f01601f191660200190565b60006105ab6105a684610570565b61053f565b90508281528383830111156105bf57600080fd5b828260208301376000602084830101529392505050565b600080600080600060a086880312156105ee57600080fd5b6105f7866104df565b9450602086013561060781610511565b9350604086013567ffffffffffffffff81111561062357600080fd5b8601601f8101881361063457600080fd5b61064388823560208401610598565b935050610652606087016104df565b9150608086013561066281610511565b809150509295509295909350565b600082601f83011261068157600080fd5b61044a83833560208501610598565b600080600080600060a086880312156106a857600080fd5b853567ffffffffffffffff808211156106c057600080fd5b6106cc89838a01610670565b96506020915081880135818111156106e357600080fd5b8801601f81018a136106f457600080fd5b80358281111561070657610706610529565b8060051b61071585820161053f565b918252828101850191858101908d84111561072f57600080fd5b86850192505b8383101561076b5782358681111561074d5760008081fd5b61075b8f8983890101610670565b8352509186019190860190610735565b809a505050505050505060408601359250610788606087016104df565b949793965091946080013592915050565b60005b838110156107b457818101518382015260200161079c565b50506000910152565b600081518084526107d5816020860160208601610799565b601f01601f19169290920160200192915050565b60208152600061044a60208301846107bd565b6000806040838503121561080f57600080fd5b505080516020909101519092909150565b60408152600061083360408301856107bd565b905060018060a01b03831660208301529392505050565b600061ffff808a16835260018060a01b03808a16602085015260e0604085015261087760e085018a6107bd565b925087606085015286608085015281861660a085015280851660c0850152505098975050505050505050565b6000602082840312156108b557600080fd5b815167ffffffffffffffff8116811461044a57600080fd5b600080604083850312156108e057600080fd5b825167ffffffffffffffff8111156108f757600080fd5b8301601f8101851361090857600080fd5b80516109166105a682610570565b81815286602083850101111561092b57600080fd5b61093c826020830160208601610799565b809450505050602083015161095081610511565b809150509250929050565b600181811c9082168061096f57607f821691505b60208210810361098f57634e487b7160e01b600052602260045260246000fd5b50919050565b601f8211156109df57600081815260208120601f850160051c810160208610156109bc5750805b601f850160051c820191505b818110156109db578281556001016109c8565b5050505b505050565b815167ffffffffffffffff8111156109fe576109fe610529565b610a1281610a0c845461095b565b84610995565b602080601f831160018114610a475760008415610a2f5750858301515b600019600386901b1c1916600185901b1785556109db565b600085815260208120601f198616915b82811015610a7657888601518255948401946001909101908401610a57565b5085821015610a945787850151600019600388901b60f8161c191681555b5050505050600190811b01905550565b606081526000808554610ab68161095b565b8060608601526080600180841660008114610ad85760018114610af257610b23565b60ff1985168884015283151560051b880183019550610b23565b8a60005260208060002060005b86811015610b1a5781548b8201870152908401908201610aff565b8a018501975050505b5050505061ffff861660208501525090506001600160a01b038316604083015294935050505056fea26469706673582212200a254150f23b4134e7ace0f136eac8c930153d2f7c50ac888c16d5b3cdf5059764736f6c63430008140033","opcodes":"PUSH1 0xA0 PUSH1 0x40 MSTORE CALLVALUE DUP1 ISZERO PUSH2 0x10 JUMPI PUSH1 0x0 DUP1 REVERT JUMPDEST POP PUSH1 0x40 MLOAD PUSH2 0xC28 CODESIZE SUB DUP1 PUSH2 0xC28 DUP4 CODECOPY DUP2 ADD PUSH1 0x40 DUP2 SWAP1 MSTORE PUSH2 0x2F SWAP2 PUSH2 0x40 JUMP JUMPDEST PUSH1 0x1 PUSH1 0x1 PUSH1 0xA0 SHL SUB AND PUSH1 0x80 MSTORE PUSH2 0x70 JUMP JUMPDEST PUSH1 0x0 PUSH1 0x20 DUP3 DUP5 SUB SLT ISZERO PUSH2 0x52 JUMPI PUSH1 0x0 DUP1 REVERT JUMPDEST DUP2 MLOAD PUSH1 0x1 PUSH1 0x1 PUSH1 0xA0 SHL SUB DUP2 AND DUP2 EQ PUSH2 0x69 JUMPI PUSH1 0x0 DUP1 REVERT JUMPDEST SWAP4 SWAP3 POP POP POP JUMP JUMPDEST PUSH1 0x80 MLOAD PUSH2 0xB81 PUSH2 0xA7 PUSH1 0x0 CODECOPY PUSH1 0x0 DUP2 DUP2 PUSH2 0x109 ADD MSTORE DUP2 DUP2 PUSH2 0x16F ADD MSTORE DUP2 DUP2 PUSH2 0x203 ADD MSTORE DUP2 DUP2 PUSH2 0x2D6 ADD MSTORE PUSH2 0x3D8 ADD MSTORE PUSH2 0xB81 PUSH1 0x0 RETURN INVALID PUSH1 0x80 PUSH1 0x40 MSTORE PUSH1 0x4 CALLDATASIZE LT PUSH2 0x55 JUMPI PUSH1 0x0 CALLDATALOAD PUSH1 0xE0 SHR DUP1 PUSH4 0x28BD75CE EQ PUSH2 0x5A JUMPI DUP1 PUSH4 0x45328AB9 EQ PUSH2 0x8D JUMPI DUP1 PUSH4 0x529DCA32 EQ PUSH2 0xA2 JUMPI DUP1 PUSH4 0x70602A1F EQ PUSH2 0xB5 JUMPI DUP1 PUSH4 0x921B58A9 EQ PUSH2 0xD5 JUMPI DUP1 PUSH4 0xDA25B725 EQ PUSH2 0xF7 JUMPI JUMPDEST PUSH1 0x0 DUP1 REVERT JUMPDEST CALLVALUE DUP1 ISZERO PUSH2 0x66 JUMPI PUSH1 0x0 DUP1 REVERT JUMPDEST POP PUSH2 0x7A PUSH2 0x75 CALLDATASIZE PUSH1 0x4 PUSH2 0x4F6 JUMP JUMPDEST PUSH2 0x143 JUMP JUMPDEST PUSH1 0x40 MLOAD SWAP1 DUP2 MSTORE PUSH1 0x20 ADD JUMPDEST PUSH1 0x40 MLOAD DUP1 SWAP2 SUB SWAP1 RETURN JUMPDEST PUSH2 0xA0 PUSH2 0x9B CALLDATASIZE PUSH1 0x4 PUSH2 0x5D6 JUMP JUMPDEST PUSH2 0x1E8 JUMP JUMPDEST STOP JUMPDEST PUSH2 0xA0 PUSH2 0xB0 CALLDATASIZE PUSH1 0x4 PUSH2 0x690 JUMP JUMPDEST PUSH2 0x2CB JUMP JUMPDEST CALLVALUE DUP1 ISZERO PUSH2 0xC1 JUMPI PUSH1 0x0 DUP1 REVERT JUMPDEST POP PUSH2 0x7A PUSH2 0xD0 CALLDATASIZE PUSH1 0x4 PUSH2 0x4F6 JUMP JUMPDEST PUSH2 0x3AC JUMP JUMPDEST CALLVALUE DUP1 ISZERO PUSH2 0xE1 JUMPI PUSH1 0x0 DUP1 REVERT JUMPDEST POP PUSH2 0xEA PUSH2 0x451 JUMP JUMPDEST PUSH1 0x40 MLOAD PUSH2 0x84 SWAP2 SWAP1 PUSH2 0x7E9 JUMP JUMPDEST CALLVALUE DUP1 ISZERO PUSH2 0x103 JUMPI PUSH1 0x0 DUP1 REVERT JUMPDEST POP PUSH2 0x12B PUSH32 0x0 DUP2 JUMP JUMPDEST PUSH1 0x40 MLOAD PUSH1 0x1 PUSH1 0x1 PUSH1 0xA0 SHL SUB SWAP1 SWAP2 AND DUP2 MSTORE PUSH1 0x20 ADD PUSH2 0x84 JUMP JUMPDEST PUSH1 0x40 MLOAD PUSH4 0xC23EE3C3 PUSH1 0xE0 SHL DUP2 MSTORE PUSH2 0xFFFF DUP3 AND PUSH1 0x4 DUP3 ADD MSTORE PUSH1 0x0 PUSH1 0x24 DUP3 ADD DUP2 SWAP1 MSTORE PUSH3 0x7A120 PUSH1 0x44 DUP4 ADD MSTORE SWAP1 PUSH32 0x0 PUSH1 0x1 PUSH1 0x1 PUSH1 0xA0 SHL SUB AND SWAP1 PUSH4 0xC23EE3C3 SWAP1 PUSH1 0x64 ADD PUSH1 0x40 DUP1 MLOAD DUP1 DUP4 SUB DUP2 DUP7 GAS STATICCALL ISZERO DUP1 ISZERO PUSH2 0x1BD JUMPI RETURNDATASIZE PUSH1 0x0 DUP1 RETURNDATACOPY RETURNDATASIZE PUSH1 0x0 REVERT JUMPDEST POP POP POP POP PUSH1 0x40 MLOAD RETURNDATASIZE PUSH1 0x1F NOT PUSH1 0x1F DUP3 ADD AND DUP3 ADD DUP1 PUSH1 0x40 MSTORE POP DUP2 ADD SWAP1 PUSH2 0x1E1 SWAP2 SWAP1 PUSH2 0x7FC JUMP JUMPDEST POP SWAP3 SWAP2 POP POP JUMP JUMPDEST PUSH1 0x0 PUSH2 0x1F3 DUP7 PUSH2 0x143 JUMP JUMPDEST SWAP1 POP DUP1 CALLVALUE EQ PUSH2 0x201 JUMPI PUSH1 0x0 DUP1 REVERT JUMPDEST PUSH32 0x0 PUSH1 0x1 PUSH1 0x1 PUSH1 0xA0 SHL SUB AND PUSH4 0x4B5CA6F4 DUP3 DUP9 DUP9 DUP9 CALLER PUSH1 0x40 MLOAD PUSH1 0x20 ADD PUSH2 0x246 SWAP3 SWAP2 SWAP1 PUSH2 0x820 JUMP JUMPDEST PUSH1 0x40 MLOAD PUSH1 0x20 DUP2 DUP4 SUB SUB DUP2 MSTORE SWAP1 PUSH1 0x40 MSTORE PUSH1 0x0 PUSH3 0x7A120 DUP11 DUP11 PUSH1 0x40 MLOAD DUP10 PUSH4 0xFFFFFFFF AND PUSH1 0xE0 SHL DUP2 MSTORE PUSH1 0x4 ADD PUSH2 0x27F SWAP8 SWAP7 SWAP6 SWAP5 SWAP4 SWAP3 SWAP2 SWAP1 PUSH2 0x84A JUMP JUMPDEST PUSH1 0x20 PUSH1 0x40 MLOAD DUP1 DUP4 SUB DUP2 DUP6 DUP9 GAS CALL ISZERO DUP1 ISZERO PUSH2 0x29D JUMPI RETURNDATASIZE PUSH1 0x0 DUP1 RETURNDATACOPY RETURNDATASIZE PUSH1 0x0 REVERT JUMPDEST POP POP POP POP POP PUSH1 0x40 MLOAD RETURNDATASIZE PUSH1 0x1F NOT PUSH1 0x1F DUP3 ADD AND DUP3 ADD DUP1 PUSH1 0x40 MSTORE POP DUP2 ADD SWAP1 PUSH2 0x2C2 SWAP2 SWAP1 PUSH2 0x8A3 JUMP JUMPDEST POP POP POP POP POP POP POP JUMP JUMPDEST CALLER PUSH1 0x1 PUSH1 0x1 PUSH1 0xA0 SHL SUB PUSH32 0x0 AND EQ PUSH2 0x33E JUMPI PUSH1 0x40 MLOAD PUSH3 0x461BCD PUSH1 0xE5 SHL DUP2 MSTORE PUSH1 0x20 PUSH1 0x4 DUP3 ADD MSTORE PUSH1 0x14 PUSH1 0x24 DUP3 ADD MSTORE PUSH20 0x13DB9B1E481C995B185E595C88185B1B1BDDD959 PUSH1 0x62 SHL PUSH1 0x44 DUP3 ADD MSTORE PUSH1 0x64 ADD PUSH1 0x40 MLOAD DUP1 SWAP2 SUB SWAP1 REVERT JUMPDEST PUSH1 0x0 DUP1 DUP7 DUP1 PUSH1 0x20 ADD SWAP1 MLOAD DUP2 ADD SWAP1 PUSH2 0x355 SWAP2 SWAP1 PUSH2 0x8CD JUMP JUMPDEST SWAP1 SWAP3 POP SWAP1 POP PUSH1 0x0 PUSH2 0x366 DUP4 DUP3 PUSH2 0x9E4 JUMP JUMPDEST POP PUSH32 0x5C4AB0CFB98525B63324629EB8C98352DEC2BECE203410170311B78405054676 PUSH1 0x0 DUP6 DUP4 PUSH1 0x40 MLOAD PUSH2 0x39B SWAP4 SWAP3 SWAP2 SWAP1 PUSH2 0xAA4 JUMP JUMPDEST PUSH1 0x40 MLOAD DUP1 SWAP2 SUB SWAP1 LOG1 POP POP POP POP POP POP POP JUMP JUMPDEST PUSH1 0x40 MLOAD PUSH4 0xC23EE3C3 PUSH1 0xE0 SHL DUP2 MSTORE PUSH2 0xFFFF DUP3 AND PUSH1 0x4 DUP3 ADD MSTORE PUSH1 0x0 PUSH1 0x24 DUP3 ADD DUP2 SWAP1 MSTORE PUSH3 0x7A120 PUSH1 0x44 DUP4 ADD MSTORE SWAP1 PUSH32 0x0 PUSH1 0x1 PUSH1 0x1 PUSH1 0xA0 SHL SUB AND SWAP1 PUSH4 0xC23EE3C3 SWAP1 PUSH1 0x64 ADD PUSH1 0x40 DUP1 MLOAD DUP1 DUP4 SUB DUP2 DUP7 GAS STATICCALL ISZERO DUP1 ISZERO PUSH2 0x426 JUMPI RETURNDATASIZE PUSH1 0x0 DUP1 RETURNDATACOPY RETURNDATASIZE PUSH1 0x0 REVERT JUMPDEST POP POP POP POP PUSH1 0x40 MLOAD RETURNDATASIZE PUSH1 0x1F NOT PUSH1 0x1F DUP3 ADD AND DUP3 ADD DUP1 PUSH1 0x40 MSTORE POP DUP2 ADD SWAP1 PUSH2 0x44A SWAP2 SWAP1 PUSH2 0x7FC JUMP JUMPDEST SWAP4 SWAP3 POP POP POP JUMP JUMPDEST PUSH1 0x0 DUP1 SLOAD PUSH2 0x45E SWAP1 PUSH2 0x95B JUMP JUMPDEST DUP1 PUSH1 0x1F ADD PUSH1 0x20 DUP1 SWAP2 DIV MUL PUSH1 0x20 ADD PUSH1 0x40 MLOAD SWAP1 DUP2 ADD PUSH1 0x40 MSTORE DUP1 SWAP3 SWAP2 SWAP1 DUP2 DUP2 MSTORE PUSH1 0x20 ADD DUP3 DUP1 SLOAD PUSH2 0x48A SWAP1 PUSH2 0x95B JUMP JUMPDEST DUP1 ISZERO PUSH2 0x4D7 JUMPI DUP1 PUSH1 0x1F LT PUSH2 0x4AC JUMPI PUSH2 0x100 DUP1 DUP4 SLOAD DIV MUL DUP4 MSTORE SWAP2 PUSH1 0x20 ADD SWAP2 PUSH2 0x4D7 JUMP JUMPDEST DUP3 ADD SWAP2 SWAP1 PUSH1 0x0 MSTORE PUSH1 0x20 PUSH1 0x0 KECCAK256 SWAP1 JUMPDEST DUP2 SLOAD DUP2 MSTORE SWAP1 PUSH1 0x1 ADD SWAP1 PUSH1 0x20 ADD DUP1 DUP4 GT PUSH2 0x4BA JUMPI DUP3 SWAP1 SUB PUSH1 0x1F AND DUP3 ADD SWAP2 JUMPDEST POP POP POP POP POP DUP2 JUMP JUMPDEST DUP1 CALLDATALOAD PUSH2 0xFFFF DUP2 AND DUP2 EQ PUSH2 0x4F1 JUMPI PUSH1 0x0 DUP1 REVERT JUMPDEST SWAP2 SWAP1 POP JUMP JUMPDEST PUSH1 0x0 PUSH1 0x20 DUP3 DUP5 SUB SLT ISZERO PUSH2 0x508 JUMPI PUSH1 0x0 DUP1 REVERT JUMPDEST PUSH2 0x44A DUP3 PUSH2 0x4DF JUMP JUMPDEST PUSH1 0x1 PUSH1 0x1 PUSH1 0xA0 SHL SUB DUP2 AND DUP2 EQ PUSH2 0x526 JUMPI PUSH1 0x0 DUP1 REVERT JUMPDEST POP JUMP JUMPDEST PUSH4 0x4E487B71 PUSH1 0xE0 SHL PUSH1 0x0 MSTORE PUSH1 0x41 PUSH1 0x4 MSTORE PUSH1 0x24 PUSH1 0x0 REVERT JUMPDEST PUSH1 0x40 MLOAD PUSH1 0x1F DUP3 ADD PUSH1 0x1F NOT AND DUP2 ADD PUSH8 0xFFFFFFFFFFFFFFFF DUP2 GT DUP3 DUP3 LT OR ISZERO PUSH2 0x568 JUMPI PUSH2 0x568 PUSH2 0x529 JUMP JUMPDEST PUSH1 0x40 MSTORE SWAP2 SWAP1 POP JUMP JUMPDEST PUSH1 0x0 PUSH8 0xFFFFFFFFFFFFFFFF DUP3 GT ISZERO PUSH2 0x58A JUMPI PUSH2 0x58A PUSH2 0x529 JUMP JUMPDEST POP PUSH1 0x1F ADD PUSH1 0x1F NOT AND PUSH1 0x20 ADD SWAP1 JUMP JUMPDEST PUSH1 0x0 PUSH2 0x5AB PUSH2 0x5A6 DUP5 PUSH2 0x570 JUMP JUMPDEST PUSH2 0x53F JUMP JUMPDEST SWAP1 POP DUP3 DUP2 MSTORE DUP4 DUP4 DUP4 ADD GT ISZERO PUSH2 0x5BF JUMPI PUSH1 0x0 DUP1 REVERT JUMPDEST DUP3 DUP3 PUSH1 0x20 DUP4 ADD CALLDATACOPY PUSH1 0x0 PUSH1 0x20 DUP5 DUP4 ADD ADD MSTORE SWAP4 SWAP3 POP POP POP JUMP JUMPDEST PUSH1 0x0 DUP1 PUSH1 0x0 DUP1 PUSH1 0x0 PUSH1 0xA0 DUP7 DUP9 SUB SLT ISZERO PUSH2 0x5EE JUMPI PUSH1 0x0 DUP1 REVERT JUMPDEST PUSH2 0x5F7 DUP7 PUSH2 0x4DF JUMP JUMPDEST SWAP5 POP PUSH1 0x20 DUP7 ADD CALLDATALOAD PUSH2 0x607 DUP2 PUSH2 0x511 JUMP JUMPDEST SWAP4 POP PUSH1 0x40 DUP7 ADD CALLDATALOAD PUSH8 0xFFFFFFFFFFFFFFFF DUP2 GT ISZERO PUSH2 0x623 JUMPI PUSH1 0x0 DUP1 REVERT JUMPDEST DUP7 ADD PUSH1 0x1F DUP2 ADD DUP9 SGT PUSH2 0x634 JUMPI PUSH1 0x0 DUP1 REVERT JUMPDEST PUSH2 0x643 DUP9 DUP3 CALLDATALOAD PUSH1 0x20 DUP5 ADD PUSH2 0x598 JUMP JUMPDEST SWAP4 POP POP PUSH2 0x652 PUSH1 0x60 DUP8 ADD PUSH2 0x4DF JUMP JUMPDEST SWAP2 POP PUSH1 0x80 DUP7 ADD CALLDATALOAD PUSH2 0x662 DUP2 PUSH2 0x511 JUMP JUMPDEST DUP1 SWAP2 POP POP SWAP3 SWAP6 POP SWAP3 SWAP6 SWAP1 SWAP4 POP JUMP JUMPDEST PUSH1 0x0 DUP3 PUSH1 0x1F DUP4 ADD SLT PUSH2 0x681 JUMPI PUSH1 0x0 DUP1 REVERT JUMPDEST PUSH2 0x44A DUP4 DUP4 CALLDATALOAD PUSH1 0x20 DUP6 ADD PUSH2 0x598 JUMP JUMPDEST PUSH1 0x0 DUP1 PUSH1 0x0 DUP1 PUSH1 0x0 PUSH1 0xA0 DUP7 DUP9 SUB SLT ISZERO PUSH2 0x6A8 JUMPI PUSH1 0x0 DUP1 REVERT JUMPDEST DUP6 CALLDATALOAD PUSH8 0xFFFFFFFFFFFFFFFF DUP1 DUP3 GT ISZERO PUSH2 0x6C0 JUMPI PUSH1 0x0 DUP1 REVERT JUMPDEST PUSH2 0x6CC DUP10 DUP4 DUP11 ADD PUSH2 0x670 JUMP JUMPDEST SWAP7 POP PUSH1 0x20 SWAP2 POP DUP2 DUP9 ADD CALLDATALOAD DUP2 DUP2 GT ISZERO PUSH2 0x6E3 JUMPI PUSH1 0x0 DUP1 REVERT JUMPDEST DUP9 ADD PUSH1 0x1F DUP2 ADD DUP11 SGT PUSH2 0x6F4 JUMPI PUSH1 0x0 DUP1 REVERT JUMPDEST DUP1 CALLDATALOAD DUP3 DUP2 GT ISZERO PUSH2 0x706 JUMPI PUSH2 0x706 PUSH2 0x529 JUMP JUMPDEST DUP1 PUSH1 0x5 SHL PUSH2 0x715 DUP6 DUP3 ADD PUSH2 0x53F JUMP JUMPDEST SWAP2 DUP3 MSTORE DUP3 DUP2 ADD DUP6 ADD SWAP2 DUP6 DUP2 ADD SWAP1 DUP14 DUP5 GT ISZERO PUSH2 0x72F JUMPI PUSH1 0x0 DUP1 REVERT JUMPDEST DUP7 DUP6 ADD SWAP3 POP JUMPDEST DUP4 DUP4 LT ISZERO PUSH2 0x76B JUMPI DUP3 CALLDATALOAD DUP7 DUP2 GT ISZERO PUSH2 0x74D JUMPI PUSH1 0x0 DUP1 DUP2 REVERT JUMPDEST PUSH2 0x75B DUP16 DUP10 DUP4 DUP10 ADD ADD PUSH2 0x670 JUMP JUMPDEST DUP4 MSTORE POP SWAP2 DUP7 ADD SWAP2 SWAP1 DUP7 ADD SWAP1 PUSH2 0x735 JUMP JUMPDEST DUP1 SWAP11 POP POP POP POP POP POP POP POP PUSH1 0x40 DUP7 ADD CALLDATALOAD SWAP3 POP PUSH2 0x788 PUSH1 0x60 DUP8 ADD PUSH2 0x4DF JUMP JUMPDEST SWAP5 SWAP8 SWAP4 SWAP7 POP SWAP2 SWAP5 PUSH1 0x80 ADD CALLDATALOAD SWAP3 SWAP2 POP POP JUMP JUMPDEST PUSH1 0x0 JUMPDEST DUP4 DUP2 LT ISZERO PUSH2 0x7B4 JUMPI DUP2 DUP2 ADD MLOAD DUP4 DUP3 ADD MSTORE PUSH1 0x20 ADD PUSH2 0x79C JUMP JUMPDEST POP POP PUSH1 0x0 SWAP2 ADD MSTORE JUMP JUMPDEST PUSH1 0x0 DUP2 MLOAD DUP1 DUP5 MSTORE PUSH2 0x7D5 DUP2 PUSH1 0x20 DUP7 ADD PUSH1 0x20 DUP7 ADD PUSH2 0x799 JUMP JUMPDEST PUSH1 0x1F ADD PUSH1 0x1F NOT AND SWAP3 SWAP1 SWAP3 ADD PUSH1 0x20 ADD SWAP3 SWAP2 POP POP JUMP JUMPDEST PUSH1 0x20 DUP2 MSTORE PUSH1 0x0 PUSH2 0x44A PUSH1 0x20 DUP4 ADD DUP5 PUSH2 0x7BD JUMP JUMPDEST PUSH1 0x0 DUP1 PUSH1 0x40 DUP4 DUP6 SUB SLT ISZERO PUSH2 0x80F JUMPI PUSH1 0x0 DUP1 REVERT JUMPDEST POP POP DUP1 MLOAD PUSH1 0x20 SWAP1 SWAP2 ADD MLOAD SWAP1 SWAP3 SWAP1 SWAP2 POP JUMP JUMPDEST PUSH1 0x40 DUP2 MSTORE PUSH1 0x0 PUSH2 0x833 PUSH1 0x40 DUP4 ADD DUP6 PUSH2 0x7BD JUMP JUMPDEST SWAP1 POP PUSH1 0x1 DUP1 PUSH1 0xA0 SHL SUB DUP4 AND PUSH1 0x20 DUP4 ADD MSTORE SWAP4 SWAP3 POP POP POP JUMP JUMPDEST PUSH1 0x0 PUSH2 0xFFFF DUP1 DUP11 AND DUP4 MSTORE PUSH1 0x1 DUP1 PUSH1 0xA0 SHL SUB DUP1 DUP11 AND PUSH1 0x20 DUP6 ADD MSTORE PUSH1 0xE0 PUSH1 0x40 DUP6 ADD MSTORE PUSH2 0x877 PUSH1 0xE0 DUP6 ADD DUP11 PUSH2 0x7BD JUMP JUMPDEST SWAP3 POP DUP8 PUSH1 0x60 DUP6 ADD MSTORE DUP7 PUSH1 0x80 DUP6 ADD MSTORE DUP2 DUP7 AND PUSH1 0xA0 DUP6 ADD MSTORE DUP1 DUP6 AND PUSH1 0xC0 DUP6 ADD MSTORE POP POP SWAP9 SWAP8 POP POP POP POP POP POP POP POP JUMP JUMPDEST PUSH1 0x0 PUSH1 0x20 DUP3 DUP5 SUB SLT ISZERO PUSH2 0x8B5 JUMPI PUSH1 0x0 DUP1 REVERT JUMPDEST DUP2 MLOAD PUSH8 0xFFFFFFFFFFFFFFFF DUP2 AND DUP2 EQ PUSH2 0x44A JUMPI PUSH1 0x0 DUP1 REVERT JUMPDEST PUSH1 0x0 DUP1 PUSH1 0x40 DUP4 DUP6 SUB SLT ISZERO PUSH2 0x8E0 JUMPI PUSH1 0x0 DUP1 REVERT JUMPDEST DUP3 MLOAD PUSH8 0xFFFFFFFFFFFFFFFF DUP2 GT ISZERO PUSH2 0x8F7 JUMPI PUSH1 0x0 DUP1 REVERT JUMPDEST DUP4 ADD PUSH1 0x1F DUP2 ADD DUP6 SGT PUSH2 0x908 JUMPI PUSH1 0x0 DUP1 REVERT JUMPDEST DUP1 MLOAD PUSH2 0x916 PUSH2 0x5A6 DUP3 PUSH2 0x570 JUMP JUMPDEST DUP2 DUP2 MSTORE DUP7 PUSH1 0x20 DUP4 DUP6 ADD ADD GT ISZERO PUSH2 0x92B JUMPI PUSH1 0x0 DUP1 REVERT JUMPDEST PUSH2 0x93C DUP3 PUSH1 0x20 DUP4 ADD PUSH1 0x20 DUP7 ADD PUSH2 0x799 JUMP JUMPDEST DUP1 SWAP5 POP POP POP POP PUSH1 0x20 DUP4 ADD MLOAD PUSH2 0x950 DUP2 PUSH2 0x511 JUMP JUMPDEST DUP1 SWAP2 POP POP SWAP3 POP SWAP3 SWAP1 POP JUMP JUMPDEST PUSH1 0x1 DUP2 DUP2 SHR SWAP1 DUP3 AND DUP1 PUSH2 0x96F JUMPI PUSH1 0x7F DUP3 AND SWAP2 POP JUMPDEST PUSH1 0x20 DUP3 LT DUP2 SUB PUSH2 0x98F JUMPI PUSH4 0x4E487B71 PUSH1 0xE0 SHL PUSH1 0x0 MSTORE PUSH1 0x22 PUSH1 0x4 MSTORE PUSH1 0x24 PUSH1 0x0 REVERT JUMPDEST POP SWAP2 SWAP1 POP JUMP JUMPDEST PUSH1 0x1F DUP3 GT ISZERO PUSH2 0x9DF JUMPI PUSH1 0x0 DUP2 DUP2 MSTORE PUSH1 0x20 DUP2 KECCAK256 PUSH1 0x1F DUP6 ADD PUSH1 0x5 SHR DUP2 ADD PUSH1 0x20 DUP7 LT ISZERO PUSH2 0x9BC JUMPI POP DUP1 JUMPDEST PUSH1 0x1F DUP6 ADD PUSH1 0x5 SHR DUP3 ADD SWAP2 POP JUMPDEST DUP2 DUP2 LT ISZERO PUSH2 0x9DB JUMPI DUP3 DUP2 SSTORE PUSH1 0x1 ADD PUSH2 0x9C8 JUMP JUMPDEST POP POP POP JUMPDEST POP POP POP JUMP JUMPDEST DUP2 MLOAD PUSH8 0xFFFFFFFFFFFFFFFF DUP2 GT ISZERO PUSH2 0x9FE JUMPI PUSH2 0x9FE PUSH2 0x529 JUMP JUMPDEST PUSH2 0xA12 DUP2 PUSH2 0xA0C DUP5 SLOAD PUSH2 0x95B JUMP JUMPDEST DUP5 PUSH2 0x995 JUMP JUMPDEST PUSH1 0x20 DUP1 PUSH1 0x1F DUP4 GT PUSH1 0x1 DUP2 EQ PUSH2 0xA47 JUMPI PUSH1 0x0 DUP5 ISZERO PUSH2 0xA2F JUMPI POP DUP6 DUP4 ADD MLOAD JUMPDEST PUSH1 0x0 NOT PUSH1 0x3 DUP7 SWAP1 SHL SHR NOT AND PUSH1 0x1 DUP6 SWAP1 SHL OR DUP6 SSTORE PUSH2 0x9DB JUMP JUMPDEST PUSH1 0x0 DUP6 DUP2 MSTORE PUSH1 0x20 DUP2 KECCAK256 PUSH1 0x1F NOT DUP7 AND SWAP2 JUMPDEST DUP3 DUP2 LT ISZERO PUSH2 0xA76 JUMPI DUP9 DUP7 ADD MLOAD DUP3 SSTORE SWAP5 DUP5 ADD SWAP5 PUSH1 0x1 SWAP1 SWAP2 ADD SWAP1 DUP5 ADD PUSH2 0xA57 JUMP JUMPDEST POP DUP6 DUP3 LT ISZERO PUSH2 0xA94 JUMPI DUP8 DUP6 ADD MLOAD PUSH1 0x0 NOT PUSH1 0x3 DUP9 SWAP1 SHL PUSH1 0xF8 AND SHR NOT AND DUP2 SSTORE JUMPDEST POP POP POP POP POP PUSH1 0x1 SWAP1 DUP2 SHL ADD SWAP1 SSTORE POP JUMP JUMPDEST PUSH1 0x60 DUP2 MSTORE PUSH1 0x0 DUP1 DUP6 SLOAD PUSH2 0xAB6 DUP2 PUSH2 0x95B JUMP JUMPDEST DUP1 PUSH1 0x60 DUP7 ADD MSTORE PUSH1 0x80 PUSH1 0x1 DUP1 DUP5 AND PUSH1 0x0 DUP2 EQ PUSH2 0xAD8 JUMPI PUSH1 0x1 DUP2 EQ PUSH2 0xAF2 JUMPI PUSH2 0xB23 JUMP JUMPDEST PUSH1 0xFF NOT DUP6 AND DUP9 DUP5 ADD MSTORE DUP4 ISZERO ISZERO PUSH1 0x5 SHL DUP9 ADD DUP4 ADD SWAP6 POP PUSH2 0xB23 JUMP JUMPDEST DUP11 PUSH1 0x0 MSTORE PUSH1 0x20 DUP1 PUSH1 0x0 KECCAK256 PUSH1 0x0 JUMPDEST DUP7 DUP2 LT ISZERO PUSH2 0xB1A JUMPI DUP2 SLOAD DUP12 DUP3 ADD DUP8 ADD MSTORE SWAP1 DUP5 ADD SWAP1 DUP3 ADD PUSH2 0xAFF JUMP JUMPDEST DUP11 ADD DUP6 ADD SWAP8 POP POP POP JUMPDEST POP POP POP POP PUSH2 0xFFFF DUP7 AND PUSH1 0x20 DUP6 ADD MSTORE POP SWAP1 POP PUSH1 0x1 PUSH1 0x1 PUSH1 0xA0 SHL SUB DUP4 AND PUSH1 0x40 DUP4 ADD MSTORE SWAP5 SWAP4 POP POP POP POP JUMP INVALID LOG2 PUSH5 0x6970667358 0x22 SLT KECCAK256 EXP 0x25 COINBASE POP CALLCODE EXTCODESIZE COINBASE CALLVALUE 0xE7 0xAC 0xE0 CALL CALLDATASIZE 0xEA 0xC8 0xC9 ADDRESS ISZERO RETURNDATASIZE 0x2F PUSH29 0x50AC888C16D5B3CDF5059764736F6C6343000814003300000000000000 "},"methodIdentifiers":{"latestGreeting()":"921b58a9","quoteCrossChainGreeting(uint16)":"28bd75ce","quoteCrossChainGreetingRefundPerUnitGasUnused(uint16)":"70602a1f","receiveWormholeMessages(bytes,bytes[],bytes32,uint16,bytes32)":"529dca32","sendCrossChainGreeting(uint16,address,string,uint16,address)":"45328ab9","wormholeRelayer()":"da25b725"}}}}}