{"contracts/extensions/HelloWormholeProtections.sol":{"HelloWormholeProtections":{"abi":[{"inputs":[{"internalType":"address","name":"_wormholeRelayer","type":"address"},{"internalType":"address","name":"_wormhole","type":"address"}],"stateMutability":"nonpayable","type":"constructor"},{"anonymous":false,"inputs":[{"indexed":false,"internalType":"string","name":"greeting","type":"string"},{"indexed":false,"internalType":"uint16","name":"senderChain","type":"uint16"},{"indexed":false,"internalType":"address","name":"sender","type":"address"}],"name":"GreetingReceived","type":"event"},{"inputs":[],"name":"latestGreeting","outputs":[{"internalType":"string","name":"","type":"string"}],"stateMutability":"view","type":"function"},{"inputs":[{"internalType":"uint16","name":"targetChain","type":"uint16"}],"name":"quoteCrossChainGreeting","outputs":[{"internalType":"uint256","name":"cost","type":"uint256"}],"stateMutability":"view","type":"function"},{"inputs":[{"internalType":"bytes","name":"payload","type":"bytes"},{"internalType":"bytes[]","name":"","type":"bytes[]"},{"internalType":"bytes32","name":"sourceAddress","type":"bytes32"},{"internalType":"uint16","name":"sourceChain","type":"uint16"},{"internalType":"bytes32","name":"","type":"bytes32"}],"name":"receiveWormholeMessages","outputs":[],"stateMutability":"payable","type":"function"},{"inputs":[{"internalType":"uint16","name":"targetChain","type":"uint16"},{"internalType":"address","name":"targetAddress","type":"address"},{"internalType":"string","name":"greeting","type":"string"}],"name":"sendCrossChainGreeting","outputs":[],"stateMutability":"payable","type":"function"},{"inputs":[{"internalType":"uint16","name":"sourceChain","type":"uint16"},{"internalType":"bytes32","name":"sourceAddress","type":"bytes32"}],"name":"setRegisteredSender","outputs":[],"stateMutability":"nonpayable","type":"function"},{"inputs":[],"name":"wormhole","outputs":[{"internalType":"contract IWormhole","name":"","type":"address"}],"stateMutability":"view","type":"function"},{"inputs":[],"name":"wormholeRelayer","outputs":[{"internalType":"contract IWormholeRelayer","name":"","type":"address"}],"stateMutability":"view","type":"function"}],"evm":{"bytecode":{"linkReferences":{},"object":"60c060405234801561001057600080fd5b50604051610ce9380380610ce983398101604081905261002f91610074565b6001600160a01b039182166080521660a052600080546001600160a01b031916331790556100a7565b80516001600160a01b038116811461006f57600080fd5b919050565b6000806040838503121561008757600080fd5b61009083610058565b915061009e60208401610058565b90509250929050565b60805160a051610c096100e0600039600060e2015260008181610150015281816101ad01528181610299015261031d0152610c096000f3fe6080604052600436106100705760003560e01c806384acd1bb1161004e57806384acd1bb146100d0578063921b58a91461011c578063da25b7251461013e578063dd12d68b1461017257600080fd5b80630f4b629a1461007557806328bd75ce1461008a578063529dca32146100bd575b600080fd5b61008861008336600461064f565b610192565b005b34801561009657600080fd5b506100aa6100a53660046106c3565b61026e565b6040519081526020015b60405180910390f35b6100886100cb366004610705565b610312565b3480156100dc57600080fd5b506101047f000000000000000000000000000000000000000000000000000000000000000081565b6040516001600160a01b0390911681526020016100b4565b34801561012857600080fd5b50610131610468565b6040516100b4919061085e565b34801561014a57600080fd5b506101047f000000000000000000000000000000000000000000000000000000000000000081565b34801561017e57600080fd5b5061008861018d366004610871565b6104f6565b600061019d8461026e565b90508034146101ab57600080fd5b7f00000000000000000000000000000000000000000000000000000000000000006001600160a01b0316638fecdd0282868686336040516020016101f092919061089b565b604051602081830303815290604052600061c3506040518763ffffffff1660e01b81526004016102249594939291906108c5565b60206040518083038185885af1158015610242573d6000803e3d6000fd5b50505050506040513d601f19601f820116820180604052508101906102679190610907565b5050505050565b60405163c23ee3c360e01b815261ffff8216600482015260006024820181905261c3506044830152907f00000000000000000000000000000000000000000000000000000000000000006001600160a01b03169063c23ee3c3906064016040805180830381865afa1580156102e7573d6000803e3d6000fd5b505050506040513d601f19601f8201168201806040525081019061030b9190610931565b5092915050565b336001600160a01b037f0000000000000000000000000000000000000000000000000000000000000000161461039a5760405162461bcd60e51b815260206004820152602260248201527f4d73672e73656e646572206973206e6f7420576f726d686f6c652052656c617960448201526132b960f11b60648201526084015b60405180910390fd5b61ffff82166000908152600160205260409020548290849081146103f85760405162461bcd60e51b81526020600482015260156024820152742737ba103932b3b4b9ba32b932b21039b2b73232b960591b6044820152606401610391565b6000808880602001905181019061040f9190610955565b909250905060026104208382610a6c565b507f5c4ab0cfb98525b63324629eb8c98352dec2bece203410170311b784050546766002878360405161045593929190610b2c565b60405180910390a1505050505050505050565b60028054610475906109e3565b80601f01602080910402602001604051908101604052809291908181526020018280546104a1906109e3565b80156104ee5780601f106104c3576101008083540402835291602001916104ee565b820191906000526020600020905b8154815290600101906020018083116104d157829003601f168201915b505050505081565b6000546001600160a01b0316331461055c5760405162461bcd60e51b8152602060048201526024808201527f4e6f7420616c6c6f77656420746f207365742072656769737465726564207365604482015263373232b960e11b6064820152608401610391565b61ffff909116600090815260016020526040902055565b803561ffff8116811461058557600080fd5b919050565b6001600160a01b038116811461059f57600080fd5b50565b634e487b7160e01b600052604160045260246000fd5b604051601f8201601f1916810167ffffffffffffffff811182821017156105e1576105e16105a2565b604052919050565b600067ffffffffffffffff821115610603576106036105a2565b50601f01601f191660200190565b600061062461061f846105e9565b6105b8565b905082815283838301111561063857600080fd5b828260208301376000602084830101529392505050565b60008060006060848603121561066457600080fd5b61066d84610573565b9250602084013561067d8161058a565b9150604084013567ffffffffffffffff81111561069957600080fd5b8401601f810186136106aa57600080fd5b6106b986823560208401610611565b9150509250925092565b6000602082840312156106d557600080fd5b6106de82610573565b9392505050565b600082601f8301126106f657600080fd5b6106de83833560208501610611565b600080600080600060a0868803121561071d57600080fd5b853567ffffffffffffffff8082111561073557600080fd5b61074189838a016106e5565b965060209150818801358181111561075857600080fd5b8801601f81018a1361076957600080fd5b80358281111561077b5761077b6105a2565b8060051b61078a8582016105b8565b918252828101850191858101908d8411156107a457600080fd5b86850192505b838310156107e0578235868111156107c25760008081fd5b6107d08f89838901016106e5565b83525091860191908601906107aa565b809a5050505050505050604086013592506107fd60608701610573565b949793965091946080013592915050565b60005b83811015610829578181015183820152602001610811565b50506000910152565b6000815180845261084a81602086016020860161080e565b601f01601f19169290920160200192915050565b6020815260006106de6020830184610832565b6000806040838503121561088457600080fd5b61088d83610573565b946020939093013593505050565b6040815260006108ae6040830185610832565b905060018060a01b03831660208301529392505050565b61ffff861681526001600160a01b038516602082015260a0604082018190526000906108f390830186610832565b606083019490945250608001529392505050565b60006020828403121561091957600080fd5b815167ffffffffffffffff811681146106de57600080fd5b6000806040838503121561094457600080fd5b505080516020909101519092909150565b6000806040838503121561096857600080fd5b825167ffffffffffffffff81111561097f57600080fd5b8301601f8101851361099057600080fd5b805161099e61061f826105e9565b8181528660208385010111156109b357600080fd5b6109c482602083016020860161080e565b80945050505060208301516109d88161058a565b809150509250929050565b600181811c908216806109f757607f821691505b602082108103610a1757634e487b7160e01b600052602260045260246000fd5b50919050565b601f821115610a6757600081815260208120601f850160051c81016020861015610a445750805b601f850160051c820191505b81811015610a6357828155600101610a50565b5050505b505050565b815167ffffffffffffffff811115610a8657610a866105a2565b610a9a81610a9484546109e3565b84610a1d565b602080601f831160018114610acf5760008415610ab75750858301515b600019600386901b1c1916600185901b178555610a63565b600085815260208120601f198616915b82811015610afe57888601518255948401946001909101908401610adf565b5085821015610b1c5787850151600019600388901b60f8161c191681555b5050505050600190811b01905550565b606081526000808554610b3e816109e3565b8060608601526080600180841660008114610b605760018114610b7a57610bab565b60ff1985168884015283151560051b880183019550610bab565b8a60005260208060002060005b86811015610ba25781548b8201870152908401908201610b87565b8a018501975050505b5050505061ffff861660208501525090506001600160a01b038316604083015294935050505056fea264697066735822122096b186a373eb1afa3b27b193dc0b3f0196db191a02b80437f48cdecc5c892b5164736f6c63430008140033","opcodes":"PUSH1 0xC0 PUSH1 0x40 MSTORE CALLVALUE DUP1 ISZERO PUSH2 0x10 JUMPI PUSH1 0x0 DUP1 REVERT JUMPDEST POP PUSH1 0x40 MLOAD PUSH2 0xCE9 CODESIZE SUB DUP1 PUSH2 0xCE9 DUP4 CODECOPY DUP2 ADD PUSH1 0x40 DUP2 SWAP1 MSTORE PUSH2 0x2F SWAP2 PUSH2 0x74 JUMP JUMPDEST PUSH1 0x1 PUSH1 0x1 PUSH1 0xA0 SHL SUB SWAP2 DUP3 AND PUSH1 0x80 MSTORE AND PUSH1 0xA0 MSTORE PUSH1 0x0 DUP1 SLOAD PUSH1 0x1 PUSH1 0x1 PUSH1 0xA0 SHL SUB NOT AND CALLER OR SWAP1 SSTORE PUSH2 0xA7 JUMP JUMPDEST DUP1 MLOAD PUSH1 0x1 PUSH1 0x1 PUSH1 0xA0 SHL SUB DUP2 AND DUP2 EQ PUSH2 0x6F JUMPI PUSH1 0x0 DUP1 REVERT JUMPDEST SWAP2 SWAP1 POP JUMP JUMPDEST PUSH1 0x0 DUP1 PUSH1 0x40 DUP4 DUP6 SUB SLT ISZERO PUSH2 0x87 JUMPI PUSH1 0x0 DUP1 REVERT JUMPDEST PUSH2 0x90 DUP4 PUSH2 0x58 JUMP JUMPDEST SWAP2 POP PUSH2 0x9E PUSH1 0x20 DUP5 ADD PUSH2 0x58 JUMP JUMPDEST SWAP1 POP SWAP3 POP SWAP3 SWAP1 POP JUMP JUMPDEST PUSH1 0x80 MLOAD PUSH1 0xA0 MLOAD PUSH2 0xC09 PUSH2 0xE0 PUSH1 0x0 CODECOPY PUSH1 0x0 PUSH1 0xE2 ADD MSTORE PUSH1 0x0 DUP2 DUP2 PUSH2 0x150 ADD MSTORE DUP2 DUP2 PUSH2 0x1AD ADD MSTORE DUP2 DUP2 PUSH2 0x299 ADD MSTORE PUSH2 0x31D ADD MSTORE PUSH2 0xC09 PUSH1 0x0 RETURN INVALID PUSH1 0x80 PUSH1 0x40 MSTORE PUSH1 0x4 CALLDATASIZE LT PUSH2 0x70 JUMPI PUSH1 0x0 CALLDATALOAD PUSH1 0xE0 SHR DUP1 PUSH4 0x84ACD1BB GT PUSH2 0x4E JUMPI DUP1 PUSH4 0x84ACD1BB EQ PUSH2 0xD0 JUMPI DUP1 PUSH4 0x921B58A9 EQ PUSH2 0x11C JUMPI DUP1 PUSH4 0xDA25B725 EQ PUSH2 0x13E JUMPI DUP1 PUSH4 0xDD12D68B EQ PUSH2 0x172 JUMPI PUSH1 0x0 DUP1 REVERT JUMPDEST DUP1 PUSH4 0xF4B629A EQ PUSH2 0x75 JUMPI DUP1 PUSH4 0x28BD75CE EQ PUSH2 0x8A JUMPI DUP1 PUSH4 0x529DCA32 EQ PUSH2 0xBD JUMPI JUMPDEST PUSH1 0x0 DUP1 REVERT JUMPDEST PUSH2 0x88 PUSH2 0x83 CALLDATASIZE PUSH1 0x4 PUSH2 0x64F JUMP JUMPDEST PUSH2 0x192 JUMP JUMPDEST STOP JUMPDEST CALLVALUE DUP1 ISZERO PUSH2 0x96 JUMPI PUSH1 0x0 DUP1 REVERT JUMPDEST POP PUSH2 0xAA PUSH2 0xA5 CALLDATASIZE PUSH1 0x4 PUSH2 0x6C3 JUMP JUMPDEST PUSH2 0x26E JUMP JUMPDEST PUSH1 0x40 MLOAD SWAP1 DUP2 MSTORE PUSH1 0x20 ADD JUMPDEST PUSH1 0x40 MLOAD DUP1 SWAP2 SUB SWAP1 RETURN JUMPDEST PUSH2 0x88 PUSH2 0xCB CALLDATASIZE PUSH1 0x4 PUSH2 0x705 JUMP JUMPDEST PUSH2 0x312 JUMP JUMPDEST CALLVALUE DUP1 ISZERO PUSH2 0xDC JUMPI PUSH1 0x0 DUP1 REVERT JUMPDEST POP PUSH2 0x104 PUSH32 0x0 DUP2 JUMP JUMPDEST PUSH1 0x40 MLOAD PUSH1 0x1 PUSH1 0x1 PUSH1 0xA0 SHL SUB SWAP1 SWAP2 AND DUP2 MSTORE PUSH1 0x20 ADD PUSH2 0xB4 JUMP JUMPDEST CALLVALUE DUP1 ISZERO PUSH2 0x128 JUMPI PUSH1 0x0 DUP1 REVERT JUMPDEST POP PUSH2 0x131 PUSH2 0x468 JUMP JUMPDEST PUSH1 0x40 MLOAD PUSH2 0xB4 SWAP2 SWAP1 PUSH2 0x85E JUMP JUMPDEST CALLVALUE DUP1 ISZERO PUSH2 0x14A JUMPI PUSH1 0x0 DUP1 REVERT JUMPDEST POP PUSH2 0x104 PUSH32 0x0 DUP2 JUMP JUMPDEST CALLVALUE DUP1 ISZERO PUSH2 0x17E JUMPI PUSH1 0x0 DUP1 REVERT JUMPDEST POP PUSH2 0x88 PUSH2 0x18D CALLDATASIZE PUSH1 0x4 PUSH2 0x871 JUMP JUMPDEST PUSH2 0x4F6 JUMP JUMPDEST PUSH1 0x0 PUSH2 0x19D DUP5 PUSH2 0x26E JUMP JUMPDEST SWAP1 POP DUP1 CALLVALUE EQ PUSH2 0x1AB JUMPI PUSH1 0x0 DUP1 REVERT JUMPDEST PUSH32 0x0 PUSH1 0x1 PUSH1 0x1 PUSH1 0xA0 SHL SUB AND PUSH4 0x8FECDD02 DUP3 DUP7 DUP7 DUP7 CALLER PUSH1 0x40 MLOAD PUSH1 0x20 ADD PUSH2 0x1F0 SWAP3 SWAP2 SWAP1 PUSH2 0x89B JUMP JUMPDEST PUSH1 0x40 MLOAD PUSH1 0x20 DUP2 DUP4 SUB SUB DUP2 MSTORE SWAP1 PUSH1 0x40 MSTORE PUSH1 0x0 PUSH2 0xC350 PUSH1 0x40 MLOAD DUP8 PUSH4 0xFFFFFFFF AND PUSH1 0xE0 SHL DUP2 MSTORE PUSH1 0x4 ADD PUSH2 0x224 SWAP6 SWAP5 SWAP4 SWAP3 SWAP2 SWAP1 PUSH2 0x8C5 JUMP JUMPDEST PUSH1 0x20 PUSH1 0x40 MLOAD DUP1 DUP4 SUB DUP2 DUP6 DUP9 GAS CALL ISZERO DUP1 ISZERO PUSH2 0x242 JUMPI RETURNDATASIZE PUSH1 0x0 DUP1 RETURNDATACOPY RETURNDATASIZE PUSH1 0x0 REVERT JUMPDEST POP POP POP POP POP PUSH1 0x40 MLOAD RETURNDATASIZE PUSH1 0x1F NOT PUSH1 0x1F DUP3 ADD AND DUP3 ADD DUP1 PUSH1 0x40 MSTORE POP DUP2 ADD SWAP1 PUSH2 0x267 SWAP2 SWAP1 PUSH2 0x907 JUMP JUMPDEST POP POP POP POP POP JUMP JUMPDEST PUSH1 0x40 MLOAD PUSH4 0xC23EE3C3 PUSH1 0xE0 SHL DUP2 MSTORE PUSH2 0xFFFF DUP3 AND PUSH1 0x4 DUP3 ADD MSTORE PUSH1 0x0 PUSH1 0x24 DUP3 ADD DUP2 SWAP1 MSTORE PUSH2 0xC350 PUSH1 0x44 DUP4 ADD MSTORE SWAP1 PUSH32 0x0 PUSH1 0x1 PUSH1 0x1 PUSH1 0xA0 SHL SUB AND SWAP1 PUSH4 0xC23EE3C3 SWAP1 PUSH1 0x64 ADD PUSH1 0x40 DUP1 MLOAD DUP1 DUP4 SUB DUP2 DUP7 GAS STATICCALL ISZERO DUP1 ISZERO PUSH2 0x2E7 JUMPI RETURNDATASIZE PUSH1 0x0 DUP1 RETURNDATACOPY RETURNDATASIZE PUSH1 0x0 REVERT JUMPDEST POP POP POP POP PUSH1 0x40 MLOAD RETURNDATASIZE PUSH1 0x1F NOT PUSH1 0x1F DUP3 ADD AND DUP3 ADD DUP1 PUSH1 0x40 MSTORE POP DUP2 ADD SWAP1 PUSH2 0x30B SWAP2 SWAP1 PUSH2 0x931 JUMP JUMPDEST POP SWAP3 SWAP2 POP POP JUMP JUMPDEST CALLER PUSH1 0x1 PUSH1 0x1 PUSH1 0xA0 SHL SUB PUSH32 0x0 AND EQ PUSH2 0x39A JUMPI PUSH1 0x40 MLOAD PUSH3 0x461BCD PUSH1 0xE5 SHL DUP2 MSTORE PUSH1 0x20 PUSH1 0x4 DUP3 ADD MSTORE PUSH1 0x22 PUSH1 0x24 DUP3 ADD MSTORE PUSH32 0x4D73672E73656E646572206973206E6F7420576F726D686F6C652052656C6179 PUSH1 0x44 DUP3 ADD MSTORE PUSH2 0x32B9 PUSH1 0xF1 SHL PUSH1 0x64 DUP3 ADD MSTORE PUSH1 0x84 ADD JUMPDEST PUSH1 0x40 MLOAD DUP1 SWAP2 SUB SWAP1 REVERT JUMPDEST PUSH2 0xFFFF DUP3 AND PUSH1 0x0 SWAP1 DUP2 MSTORE PUSH1 0x1 PUSH1 0x20 MSTORE PUSH1 0x40 SWAP1 KECCAK256 SLOAD DUP3 SWAP1 DUP5 SWAP1 DUP2 EQ PUSH2 0x3F8 JUMPI PUSH1 0x40 MLOAD PUSH3 0x461BCD PUSH1 0xE5 SHL DUP2 MSTORE PUSH1 0x20 PUSH1 0x4 DUP3 ADD MSTORE PUSH1 0x15 PUSH1 0x24 DUP3 ADD MSTORE PUSH21 0x2737BA103932B3B4B9BA32B932B21039B2B73232B9 PUSH1 0x59 SHL PUSH1 0x44 DUP3 ADD MSTORE PUSH1 0x64 ADD PUSH2 0x391 JUMP JUMPDEST PUSH1 0x0 DUP1 DUP9 DUP1 PUSH1 0x20 ADD SWAP1 MLOAD DUP2 ADD SWAP1 PUSH2 0x40F SWAP2 SWAP1 PUSH2 0x955 JUMP JUMPDEST SWAP1 SWAP3 POP SWAP1 POP PUSH1 0x2 PUSH2 0x420 DUP4 DUP3 PUSH2 0xA6C JUMP JUMPDEST POP PUSH32 0x5C4AB0CFB98525B63324629EB8C98352DEC2BECE203410170311B78405054676 PUSH1 0x2 DUP8 DUP4 PUSH1 0x40 MLOAD PUSH2 0x455 SWAP4 SWAP3 SWAP2 SWAP1 PUSH2 0xB2C JUMP JUMPDEST PUSH1 0x40 MLOAD DUP1 SWAP2 SUB SWAP1 LOG1 POP POP POP POP POP POP POP POP POP JUMP JUMPDEST PUSH1 0x2 DUP1 SLOAD PUSH2 0x475 SWAP1 PUSH2 0x9E3 JUMP JUMPDEST DUP1 PUSH1 0x1F ADD PUSH1 0x20 DUP1 SWAP2 DIV MUL PUSH1 0x20 ADD PUSH1 0x40 MLOAD SWAP1 DUP2 ADD PUSH1 0x40 MSTORE DUP1 SWAP3 SWAP2 SWAP1 DUP2 DUP2 MSTORE PUSH1 0x20 ADD DUP3 DUP1 SLOAD PUSH2 0x4A1 SWAP1 PUSH2 0x9E3 JUMP JUMPDEST DUP1 ISZERO PUSH2 0x4EE JUMPI DUP1 PUSH1 0x1F LT PUSH2 0x4C3 JUMPI PUSH2 0x100 DUP1 DUP4 SLOAD DIV MUL DUP4 MSTORE SWAP2 PUSH1 0x20 ADD SWAP2 PUSH2 0x4EE JUMP JUMPDEST DUP3 ADD SWAP2 SWAP1 PUSH1 0x0 MSTORE PUSH1 0x20 PUSH1 0x0 KECCAK256 SWAP1 JUMPDEST DUP2 SLOAD DUP2 MSTORE SWAP1 PUSH1 0x1 ADD SWAP1 PUSH1 0x20 ADD DUP1 DUP4 GT PUSH2 0x4D1 JUMPI DUP3 SWAP1 SUB PUSH1 0x1F AND DUP3 ADD SWAP2 JUMPDEST POP POP POP POP POP DUP2 JUMP JUMPDEST PUSH1 0x0 SLOAD PUSH1 0x1 PUSH1 0x1 PUSH1 0xA0 SHL SUB AND CALLER EQ PUSH2 0x55C JUMPI PUSH1 0x40 MLOAD PUSH3 0x461BCD PUSH1 0xE5 SHL DUP2 MSTORE PUSH1 0x20 PUSH1 0x4 DUP3 ADD MSTORE PUSH1 0x24 DUP1 DUP3 ADD MSTORE PUSH32 0x4E6F7420616C6C6F77656420746F207365742072656769737465726564207365 PUSH1 0x44 DUP3 ADD MSTORE PUSH4 0x373232B9 PUSH1 0xE1 SHL PUSH1 0x64 DUP3 ADD MSTORE PUSH1 0x84 ADD PUSH2 0x391 JUMP JUMPDEST PUSH2 0xFFFF SWAP1 SWAP2 AND PUSH1 0x0 SWAP1 DUP2 MSTORE PUSH1 0x1 PUSH1 0x20 MSTORE PUSH1 0x40 SWAP1 KECCAK256 SSTORE JUMP JUMPDEST DUP1 CALLDATALOAD PUSH2 0xFFFF DUP2 AND DUP2 EQ PUSH2 0x585 JUMPI PUSH1 0x0 DUP1 REVERT JUMPDEST SWAP2 SWAP1 POP JUMP JUMPDEST PUSH1 0x1 PUSH1 0x1 PUSH1 0xA0 SHL SUB DUP2 AND DUP2 EQ PUSH2 0x59F JUMPI PUSH1 0x0 DUP1 REVERT JUMPDEST POP JUMP JUMPDEST PUSH4 0x4E487B71 PUSH1 0xE0 SHL PUSH1 0x0 MSTORE PUSH1 0x41 PUSH1 0x4 MSTORE PUSH1 0x24 PUSH1 0x0 REVERT JUMPDEST PUSH1 0x40 MLOAD PUSH1 0x1F DUP3 ADD PUSH1 0x1F NOT AND DUP2 ADD PUSH8 0xFFFFFFFFFFFFFFFF DUP2 GT DUP3 DUP3 LT OR ISZERO PUSH2 0x5E1 JUMPI PUSH2 0x5E1 PUSH2 0x5A2 JUMP JUMPDEST PUSH1 0x40 MSTORE SWAP2 SWAP1 POP JUMP JUMPDEST PUSH1 0x0 PUSH8 0xFFFFFFFFFFFFFFFF DUP3 GT ISZERO PUSH2 0x603 JUMPI PUSH2 0x603 PUSH2 0x5A2 JUMP JUMPDEST POP PUSH1 0x1F ADD PUSH1 0x1F NOT AND PUSH1 0x20 ADD SWAP1 JUMP JUMPDEST PUSH1 0x0 PUSH2 0x624 PUSH2 0x61F DUP5 PUSH2 0x5E9 JUMP JUMPDEST PUSH2 0x5B8 JUMP JUMPDEST SWAP1 POP DUP3 DUP2 MSTORE DUP4 DUP4 DUP4 ADD GT ISZERO PUSH2 0x638 JUMPI PUSH1 0x0 DUP1 REVERT JUMPDEST DUP3 DUP3 PUSH1 0x20 DUP4 ADD CALLDATACOPY PUSH1 0x0 PUSH1 0x20 DUP5 DUP4 ADD ADD MSTORE SWAP4 SWAP3 POP POP POP JUMP JUMPDEST PUSH1 0x0 DUP1 PUSH1 0x0 PUSH1 0x60 DUP5 DUP7 SUB SLT ISZERO PUSH2 0x664 JUMPI PUSH1 0x0 DUP1 REVERT JUMPDEST PUSH2 0x66D DUP5 PUSH2 0x573 JUMP JUMPDEST SWAP3 POP PUSH1 0x20 DUP5 ADD CALLDATALOAD PUSH2 0x67D DUP2 PUSH2 0x58A JUMP JUMPDEST SWAP2 POP PUSH1 0x40 DUP5 ADD CALLDATALOAD PUSH8 0xFFFFFFFFFFFFFFFF DUP2 GT ISZERO PUSH2 0x699 JUMPI PUSH1 0x0 DUP1 REVERT JUMPDEST DUP5 ADD PUSH1 0x1F DUP2 ADD DUP7 SGT PUSH2 0x6AA JUMPI PUSH1 0x0 DUP1 REVERT JUMPDEST PUSH2 0x6B9 DUP7 DUP3 CALLDATALOAD PUSH1 0x20 DUP5 ADD PUSH2 0x611 JUMP JUMPDEST SWAP2 POP POP SWAP3 POP SWAP3 POP SWAP3 JUMP JUMPDEST PUSH1 0x0 PUSH1 0x20 DUP3 DUP5 SUB SLT ISZERO PUSH2 0x6D5 JUMPI PUSH1 0x0 DUP1 REVERT JUMPDEST PUSH2 0x6DE DUP3 PUSH2 0x573 JUMP JUMPDEST SWAP4 SWAP3 POP POP POP JUMP JUMPDEST PUSH1 0x0 DUP3 PUSH1 0x1F DUP4 ADD SLT PUSH2 0x6F6 JUMPI PUSH1 0x0 DUP1 REVERT JUMPDEST PUSH2 0x6DE DUP4 DUP4 CALLDATALOAD PUSH1 0x20 DUP6 ADD PUSH2 0x611 JUMP JUMPDEST PUSH1 0x0 DUP1 PUSH1 0x0 DUP1 PUSH1 0x0 PUSH1 0xA0 DUP7 DUP9 SUB SLT ISZERO PUSH2 0x71D JUMPI PUSH1 0x0 DUP1 REVERT JUMPDEST DUP6 CALLDATALOAD PUSH8 0xFFFFFFFFFFFFFFFF DUP1 DUP3 GT ISZERO PUSH2 0x735 JUMPI PUSH1 0x0 DUP1 REVERT JUMPDEST PUSH2 0x741 DUP10 DUP4 DUP11 ADD PUSH2 0x6E5 JUMP JUMPDEST SWAP7 POP PUSH1 0x20 SWAP2 POP DUP2 DUP9 ADD CALLDATALOAD DUP2 DUP2 GT ISZERO PUSH2 0x758 JUMPI PUSH1 0x0 DUP1 REVERT JUMPDEST DUP9 ADD PUSH1 0x1F DUP2 ADD DUP11 SGT PUSH2 0x769 JUMPI PUSH1 0x0 DUP1 REVERT JUMPDEST DUP1 CALLDATALOAD DUP3 DUP2 GT ISZERO PUSH2 0x77B JUMPI PUSH2 0x77B PUSH2 0x5A2 JUMP JUMPDEST DUP1 PUSH1 0x5 SHL PUSH2 0x78A DUP6 DUP3 ADD PUSH2 0x5B8 JUMP JUMPDEST SWAP2 DUP3 MSTORE DUP3 DUP2 ADD DUP6 ADD SWAP2 DUP6 DUP2 ADD SWAP1 DUP14 DUP5 GT ISZERO PUSH2 0x7A4 JUMPI PUSH1 0x0 DUP1 REVERT JUMPDEST DUP7 DUP6 ADD SWAP3 POP JUMPDEST DUP4 DUP4 LT ISZERO PUSH2 0x7E0 JUMPI DUP3 CALLDATALOAD DUP7 DUP2 GT ISZERO PUSH2 0x7C2 JUMPI PUSH1 0x0 DUP1 DUP2 REVERT JUMPDEST PUSH2 0x7D0 DUP16 DUP10 DUP4 DUP10 ADD ADD PUSH2 0x6E5 JUMP JUMPDEST DUP4 MSTORE POP SWAP2 DUP7 ADD SWAP2 SWAP1 DUP7 ADD SWAP1 PUSH2 0x7AA JUMP JUMPDEST DUP1 SWAP11 POP POP POP POP POP POP POP POP PUSH1 0x40 DUP7 ADD CALLDATALOAD SWAP3 POP PUSH2 0x7FD PUSH1 0x60 DUP8 ADD PUSH2 0x573 JUMP JUMPDEST SWAP5 SWAP8 SWAP4 SWAP7 POP SWAP2 SWAP5 PUSH1 0x80 ADD CALLDATALOAD SWAP3 SWAP2 POP POP JUMP JUMPDEST PUSH1 0x0 JUMPDEST DUP4 DUP2 LT ISZERO PUSH2 0x829 JUMPI DUP2 DUP2 ADD MLOAD DUP4 DUP3 ADD MSTORE PUSH1 0x20 ADD PUSH2 0x811 JUMP JUMPDEST POP POP PUSH1 0x0 SWAP2 ADD MSTORE JUMP JUMPDEST PUSH1 0x0 DUP2 MLOAD DUP1 DUP5 MSTORE PUSH2 0x84A DUP2 PUSH1 0x20 DUP7 ADD PUSH1 0x20 DUP7 ADD PUSH2 0x80E JUMP JUMPDEST PUSH1 0x1F ADD PUSH1 0x1F NOT AND SWAP3 SWAP1 SWAP3 ADD PUSH1 0x20 ADD SWAP3 SWAP2 POP POP JUMP JUMPDEST PUSH1 0x20 DUP2 MSTORE PUSH1 0x0 PUSH2 0x6DE PUSH1 0x20 DUP4 ADD DUP5 PUSH2 0x832 JUMP JUMPDEST PUSH1 0x0 DUP1 PUSH1 0x40 DUP4 DUP6 SUB SLT ISZERO PUSH2 0x884 JUMPI PUSH1 0x0 DUP1 REVERT JUMPDEST PUSH2 0x88D DUP4 PUSH2 0x573 JUMP JUMPDEST SWAP5 PUSH1 0x20 SWAP4 SWAP1 SWAP4 ADD CALLDATALOAD SWAP4 POP POP POP JUMP JUMPDEST PUSH1 0x40 DUP2 MSTORE PUSH1 0x0 PUSH2 0x8AE PUSH1 0x40 DUP4 ADD DUP6 PUSH2 0x832 JUMP JUMPDEST SWAP1 POP PUSH1 0x1 DUP1 PUSH1 0xA0 SHL SUB DUP4 AND PUSH1 0x20 DUP4 ADD MSTORE SWAP4 SWAP3 POP POP POP JUMP JUMPDEST PUSH2 0xFFFF DUP7 AND DUP2 MSTORE PUSH1 0x1 PUSH1 0x1 PUSH1 0xA0 SHL SUB DUP6 AND PUSH1 0x20 DUP3 ADD MSTORE PUSH1 0xA0 PUSH1 0x40 DUP3 ADD DUP2 SWAP1 MSTORE PUSH1 0x0 SWAP1 PUSH2 0x8F3 SWAP1 DUP4 ADD DUP7 PUSH2 0x832 JUMP JUMPDEST PUSH1 0x60 DUP4 ADD SWAP5 SWAP1 SWAP5 MSTORE POP PUSH1 0x80 ADD MSTORE SWAP4 SWAP3 POP POP POP JUMP JUMPDEST PUSH1 0x0 PUSH1 0x20 DUP3 DUP5 SUB SLT ISZERO PUSH2 0x919 JUMPI PUSH1 0x0 DUP1 REVERT JUMPDEST DUP2 MLOAD PUSH8 0xFFFFFFFFFFFFFFFF DUP2 AND DUP2 EQ PUSH2 0x6DE JUMPI PUSH1 0x0 DUP1 REVERT JUMPDEST PUSH1 0x0 DUP1 PUSH1 0x40 DUP4 DUP6 SUB SLT ISZERO PUSH2 0x944 JUMPI PUSH1 0x0 DUP1 REVERT JUMPDEST POP POP DUP1 MLOAD PUSH1 0x20 SWAP1 SWAP2 ADD MLOAD SWAP1 SWAP3 SWAP1 SWAP2 POP JUMP JUMPDEST PUSH1 0x0 DUP1 PUSH1 0x40 DUP4 DUP6 SUB SLT ISZERO PUSH2 0x968 JUMPI PUSH1 0x0 DUP1 REVERT JUMPDEST DUP3 MLOAD PUSH8 0xFFFFFFFFFFFFFFFF DUP2 GT ISZERO PUSH2 0x97F JUMPI PUSH1 0x0 DUP1 REVERT JUMPDEST DUP4 ADD PUSH1 0x1F DUP2 ADD DUP6 SGT PUSH2 0x990 JUMPI PUSH1 0x0 DUP1 REVERT JUMPDEST DUP1 MLOAD PUSH2 0x99E PUSH2 0x61F DUP3 PUSH2 0x5E9 JUMP JUMPDEST DUP2 DUP2 MSTORE DUP7 PUSH1 0x20 DUP4 DUP6 ADD ADD GT ISZERO PUSH2 0x9B3 JUMPI PUSH1 0x0 DUP1 REVERT JUMPDEST PUSH2 0x9C4 DUP3 PUSH1 0x20 DUP4 ADD PUSH1 0x20 DUP7 ADD PUSH2 0x80E JUMP JUMPDEST DUP1 SWAP5 POP POP POP POP PUSH1 0x20 DUP4 ADD MLOAD PUSH2 0x9D8 DUP2 PUSH2 0x58A JUMP JUMPDEST DUP1 SWAP2 POP POP SWAP3 POP SWAP3 SWAP1 POP JUMP JUMPDEST PUSH1 0x1 DUP2 DUP2 SHR SWAP1 DUP3 AND DUP1 PUSH2 0x9F7 JUMPI PUSH1 0x7F DUP3 AND SWAP2 POP JUMPDEST PUSH1 0x20 DUP3 LT DUP2 SUB PUSH2 0xA17 JUMPI PUSH4 0x4E487B71 PUSH1 0xE0 SHL PUSH1 0x0 MSTORE PUSH1 0x22 PUSH1 0x4 MSTORE PUSH1 0x24 PUSH1 0x0 REVERT JUMPDEST POP SWAP2 SWAP1 POP JUMP JUMPDEST PUSH1 0x1F DUP3 GT ISZERO PUSH2 0xA67 JUMPI PUSH1 0x0 DUP2 DUP2 MSTORE PUSH1 0x20 DUP2 KECCAK256 PUSH1 0x1F DUP6 ADD PUSH1 0x5 SHR DUP2 ADD PUSH1 0x20 DUP7 LT ISZERO PUSH2 0xA44 JUMPI POP DUP1 JUMPDEST PUSH1 0x1F DUP6 ADD PUSH1 0x5 SHR DUP3 ADD SWAP2 POP JUMPDEST DUP2 DUP2 LT ISZERO PUSH2 0xA63 JUMPI DUP3 DUP2 SSTORE PUSH1 0x1 ADD PUSH2 0xA50 JUMP JUMPDEST POP POP POP JUMPDEST POP POP POP JUMP JUMPDEST DUP2 MLOAD PUSH8 0xFFFFFFFFFFFFFFFF DUP2 GT ISZERO PUSH2 0xA86 JUMPI PUSH2 0xA86 PUSH2 0x5A2 JUMP JUMPDEST PUSH2 0xA9A DUP2 PUSH2 0xA94 DUP5 SLOAD PUSH2 0x9E3 JUMP JUMPDEST DUP5 PUSH2 0xA1D JUMP JUMPDEST PUSH1 0x20 DUP1 PUSH1 0x1F DUP4 GT PUSH1 0x1 DUP2 EQ PUSH2 0xACF JUMPI PUSH1 0x0 DUP5 ISZERO PUSH2 0xAB7 JUMPI POP DUP6 DUP4 ADD MLOAD JUMPDEST PUSH1 0x0 NOT PUSH1 0x3 DUP7 SWAP1 SHL SHR NOT AND PUSH1 0x1 DUP6 SWAP1 SHL OR DUP6 SSTORE PUSH2 0xA63 JUMP JUMPDEST PUSH1 0x0 DUP6 DUP2 MSTORE PUSH1 0x20 DUP2 KECCAK256 PUSH1 0x1F NOT DUP7 AND SWAP2 JUMPDEST DUP3 DUP2 LT ISZERO PUSH2 0xAFE JUMPI DUP9 DUP7 ADD MLOAD DUP3 SSTORE SWAP5 DUP5 ADD SWAP5 PUSH1 0x1 SWAP1 SWAP2 ADD SWAP1 DUP5 ADD PUSH2 0xADF JUMP JUMPDEST POP DUP6 DUP3 LT ISZERO PUSH2 0xB1C JUMPI DUP8 DUP6 ADD MLOAD PUSH1 0x0 NOT PUSH1 0x3 DUP9 SWAP1 SHL PUSH1 0xF8 AND SHR NOT AND DUP2 SSTORE JUMPDEST POP POP POP POP POP PUSH1 0x1 SWAP1 DUP2 SHL ADD SWAP1 SSTORE POP JUMP JUMPDEST PUSH1 0x60 DUP2 MSTORE PUSH1 0x0 DUP1 DUP6 SLOAD PUSH2 0xB3E DUP2 PUSH2 0x9E3 JUMP JUMPDEST DUP1 PUSH1 0x60 DUP7 ADD MSTORE PUSH1 0x80 PUSH1 0x1 DUP1 DUP5 AND PUSH1 0x0 DUP2 EQ PUSH2 0xB60 JUMPI PUSH1 0x1 DUP2 EQ PUSH2 0xB7A JUMPI PUSH2 0xBAB JUMP JUMPDEST PUSH1 0xFF NOT DUP6 AND DUP9 DUP5 ADD MSTORE DUP4 ISZERO ISZERO PUSH1 0x5 SHL DUP9 ADD DUP4 ADD SWAP6 POP PUSH2 0xBAB JUMP JUMPDEST DUP11 PUSH1 0x0 MSTORE PUSH1 0x20 DUP1 PUSH1 0x0 KECCAK256 PUSH1 0x0 JUMPDEST DUP7 DUP2 LT ISZERO PUSH2 0xBA2 JUMPI DUP2 SLOAD DUP12 DUP3 ADD DUP8 ADD MSTORE SWAP1 DUP5 ADD SWAP1 DUP3 ADD PUSH2 0xB87 JUMP JUMPDEST DUP11 ADD DUP6 ADD SWAP8 POP POP POP JUMPDEST POP POP POP POP PUSH2 0xFFFF DUP7 AND PUSH1 0x20 DUP6 ADD MSTORE POP SWAP1 POP PUSH1 0x1 PUSH1 0x1 PUSH1 0xA0 SHL SUB DUP4 AND PUSH1 0x40 DUP4 ADD MSTORE SWAP5 SWAP4 POP POP POP POP JUMP INVALID LOG2 PUSH5 0x6970667358 0x22 SLT KECCAK256 SWAP7 0xB1 DUP7 LOG3 PUSH20 0xEB1AFA3B27B193DC0B3F0196DB191A02B80437F4 DUP13 0xDE 0xCC 0x5C DUP10 0x2B MLOAD PUSH5 0x736F6C6343 STOP ADDMOD EQ STOP CALLER "},"methodIdentifiers":{"latestGreeting()":"921b58a9","quoteCrossChainGreeting(uint16)":"28bd75ce","receiveWormholeMessages(bytes,bytes[],bytes32,uint16,bytes32)":"529dca32","sendCrossChainGreeting(uint16,address,string)":"0f4b629a","setRegisteredSender(uint16,bytes32)":"dd12d68b","wormhole()":"84acd1bb","wormholeRelayer()":"da25b725"}}}}}