{
  "_format": "hh-sol-artifact-1",
  "contractName": "HelloWormhole",
  "sourceName": "contracts/HelloWormhole.sol",
  "abi": [
    {
      "inputs": [
        {
          "internalType": "address",
          "name": "_wormholeRelayer",
          "type": "address"
        }
      ],
      "stateMutability": "nonpayable",
      "type": "constructor"
    },
    {
      "anonymous": false,
      "inputs": [
        {
          "indexed": false,
          "internalType": "string",
          "name": "greeting",
          "type": "string"
        },
        {
          "indexed": false,
          "internalType": "uint16",
          "name": "senderChain",
          "type": "uint16"
        },
        {
          "indexed": false,
          "internalType": "address",
          "name": "sender",
          "type": "address"
        }
      ],
      "name": "GreetingReceived",
      "type": "event"
    },
    {
      "inputs": [],
      "name": "latestGreeting",
      "outputs": [
        {
          "internalType": "string",
          "name": "",
          "type": "string"
        }
      ],
      "stateMutability": "view",
      "type": "function"
    },
    {
      "inputs": [
        {
          "internalType": "uint16",
          "name": "targetChain",
          "type": "uint16"
        }
      ],
      "name": "quoteCrossChainGreeting",
      "outputs": [
        {
          "internalType": "uint256",
          "name": "cost",
          "type": "uint256"
        }
      ],
      "stateMutability": "view",
      "type": "function"
    },
    {
      "inputs": [
        {
          "internalType": "bytes",
          "name": "payload",
          "type": "bytes"
        },
        {
          "internalType": "bytes[]",
          "name": "",
          "type": "bytes[]"
        },
        {
          "internalType": "bytes32",
          "name": "",
          "type": "bytes32"
        },
        {
          "internalType": "uint16",
          "name": "sourceChain",
          "type": "uint16"
        },
        {
          "internalType": "bytes32",
          "name": "",
          "type": "bytes32"
        }
      ],
      "name": "receiveWormholeMessages",
      "outputs": [],
      "stateMutability": "payable",
      "type": "function"
    },
    {
      "inputs": [
        {
          "internalType": "uint16",
          "name": "targetChain",
          "type": "uint16"
        },
        {
          "internalType": "address",
          "name": "targetAddress",
          "type": "address"
        },
        {
          "internalType": "string",
          "name": "greeting",
          "type": "string"
        }
      ],
      "name": "sendCrossChainGreeting",
      "outputs": [],
      "stateMutability": "payable",
      "type": "function"
    },
    {
      "inputs": [],
      "name": "wormholeRelayer",
      "outputs": [
        {
          "internalType": "contract IWormholeRelayer",
          "name": "",
          "type": "address"
        }
      ],
      "stateMutability": "view",
      "type": "function"
    }
  ],
  "bytecode": "0x60a060405234801561001057600080fd5b50604051610b12380380610b1283398101604081905261002f91610040565b6001600160a01b0316608052610070565b60006020828403121561005257600080fd5b81516001600160a01b038116811461006957600080fd5b9392505050565b608051610a7361009f6000396000818160de015281816101330152818161021f01526102a30152610a736000f3fe60806040526004361061004a5760003560e01c80630f4b629a1461004f57806328bd75ce14610064578063529dca3214610097578063921b58a9146100aa578063da25b725146100cc575b600080fd5b61006261005d3660046104e3565b610118565b005b34801561007057600080fd5b5061008461007f366004610557565b6101f4565b6040519081526020015b60405180910390f35b6100626100a5366004610599565b610298565b3480156100b657600080fd5b506100bf610379565b60405161008e91906106f2565b3480156100d857600080fd5b506101007f000000000000000000000000000000000000000000000000000000000000000081565b6040516001600160a01b03909116815260200161008e565b6000610123846101f4565b905080341461013157600080fd5b7f00000000000000000000000000000000000000000000000000000000000000006001600160a01b0316638fecdd028286868633604051602001610176929190610705565b604051602081830303815290604052600061c3506040518763ffffffff1660e01b81526004016101aa95949392919061072f565b60206040518083038185885af11580156101c8573d6000803e3d6000fd5b50505050506040513d601f19601f820116820180604052508101906101ed9190610771565b5050505050565b60405163c23ee3c360e01b815261ffff8216600482015260006024820181905261c3506044830152907f00000000000000000000000000000000000000000000000000000000000000006001600160a01b03169063c23ee3c3906064016040805180830381865afa15801561026d573d6000803e3d6000fd5b505050506040513d601f19601f82011682018060405250810190610291919061079b565b5092915050565b336001600160a01b037f0000000000000000000000000000000000000000000000000000000000000000161461030b5760405162461bcd60e51b815260206004820152601460248201527313db9b1e481c995b185e595c88185b1b1bddd95960621b604482015260640160405180910390fd5b6000808680602001905181019061032291906107bf565b9092509050600061033383826108d6565b507f5c4ab0cfb98525b63324629eb8c98352dec2bece203410170311b784050546766000858360405161036893929190610996565b60405180910390a150505050505050565b600080546103869061084d565b80601f01602080910402602001604051908101604052809291908181526020018280546103b29061084d565b80156103ff5780601f106103d4576101008083540402835291602001916103ff565b820191906000526020600020905b8154815290600101906020018083116103e257829003601f168201915b505050505081565b803561ffff8116811461041957600080fd5b919050565b6001600160a01b038116811461043357600080fd5b50565b634e487b7160e01b600052604160045260246000fd5b604051601f8201601f1916810167ffffffffffffffff8111828210171561047557610475610436565b604052919050565b600067ffffffffffffffff82111561049757610497610436565b50601f01601f191660200190565b60006104b86104b38461047d565b61044c565b90508281528383830111156104cc57600080fd5b828260208301376000602084830101529392505050565b6000806000606084860312156104f857600080fd5b61050184610407565b925060208401356105118161041e565b9150604084013567ffffffffffffffff81111561052d57600080fd5b8401601f8101861361053e57600080fd5b61054d868235602084016104a5565b9150509250925092565b60006020828403121561056957600080fd5b61057282610407565b9392505050565b600082601f83011261058a57600080fd5b610572838335602085016104a5565b600080600080600060a086880312156105b157600080fd5b853567ffffffffffffffff808211156105c957600080fd5b6105d589838a01610579565b96506020915081880135818111156105ec57600080fd5b8801601f81018a136105fd57600080fd5b80358281111561060f5761060f610436565b8060051b61061e85820161044c565b918252828101850191858101908d84111561063857600080fd5b86850192505b83831015610674578235868111156106565760008081fd5b6106648f8983890101610579565b835250918601919086019061063e565b809a50505050505050506040860135925061069160608701610407565b949793965091946080013592915050565b60005b838110156106bd5781810151838201526020016106a5565b50506000910152565b600081518084526106de8160208601602086016106a2565b601f01601f19169290920160200192915050565b60208152600061057260208301846106c6565b60408152600061071860408301856106c6565b905060018060a01b03831660208301529392505050565b61ffff861681526001600160a01b038516602082015260a06040820181905260009061075d908301866106c6565b606083019490945250608001529392505050565b60006020828403121561078357600080fd5b815167ffffffffffffffff8116811461057257600080fd5b600080604083850312156107ae57600080fd5b505080516020909101519092909150565b600080604083850312156107d257600080fd5b825167ffffffffffffffff8111156107e957600080fd5b8301601f810185136107fa57600080fd5b80516108086104b38261047d565b81815286602083850101111561081d57600080fd5b61082e8260208301602086016106a2565b80945050505060208301516108428161041e565b809150509250929050565b600181811c9082168061086157607f821691505b60208210810361088157634e487b7160e01b600052602260045260246000fd5b50919050565b601f8211156108d157600081815260208120601f850160051c810160208610156108ae5750805b601f850160051c820191505b818110156108cd578281556001016108ba565b5050505b505050565b815167ffffffffffffffff8111156108f0576108f0610436565b610904816108fe845461084d565b84610887565b602080601f83116001811461093957600084156109215750858301515b600019600386901b1c1916600185901b1785556108cd565b600085815260208120601f198616915b8281101561096857888601518255948401946001909101908401610949565b50858210156109865787850151600019600388901b60f8161c191681555b5050505050600190811b01905550565b6060815260008085546109a88161084d565b80606086015260806001808416600081146109ca57600181146109e457610a15565b60ff1985168884015283151560051b880183019550610a15565b8a60005260208060002060005b86811015610a0c5781548b82018701529084019082016109f1565b8a018501975050505b5050505061ffff861660208501525090506001600160a01b038316604083015294935050505056fea26469706673582212208431afb918e9f0d2a7b38af6d62bfbc387e0911b24f7e76b8f5da111a03940a864736f6c63430008140033",
  "linkReferences": {},
  "deployedLinkReferences": {}
}