{
  "_format": "hh-sol-artifact-1",
  "contractName": "HelloWormholeConfirmation",
  "sourceName": "contracts/extensions/HelloWormholeConfirmation.sol",
  "abi": [
    {
      "inputs": [
        {
          "internalType": "address",
          "name": "_wormholeRelayer",
          "type": "address"
        },
        {
          "internalType": "address",
          "name": "_wormhole",
          "type": "address"
        }
      ],
      "stateMutability": "nonpayable",
      "type": "constructor"
    },
    {
      "inputs": [
        {
          "internalType": "bytes32",
          "name": "",
          "type": "bytes32"
        }
      ],
      "name": "NotAnEvmAddress",
      "type": "error"
    },
    {
      "anonymous": false,
      "inputs": [
        {
          "indexed": false,
          "internalType": "string",
          "name": "greeting",
          "type": "string"
        },
        {
          "indexed": false,
          "internalType": "uint16",
          "name": "senderChain",
          "type": "uint16"
        },
        {
          "indexed": false,
          "internalType": "address",
          "name": "sender",
          "type": "address"
        }
      ],
      "name": "GreetingReceived",
      "type": "event"
    },
    {
      "anonymous": false,
      "inputs": [
        {
          "indexed": false,
          "internalType": "string",
          "name": "greeting",
          "type": "string"
        },
        {
          "indexed": false,
          "internalType": "address",
          "name": "sender",
          "type": "address"
        }
      ],
      "name": "GreetingSuccess",
      "type": "event"
    },
    {
      "inputs": [],
      "name": "latestConfirmedSentGreeting",
      "outputs": [
        {
          "internalType": "string",
          "name": "",
          "type": "string"
        }
      ],
      "stateMutability": "view",
      "type": "function"
    },
    {
      "inputs": [],
      "name": "latestGreeting",
      "outputs": [
        {
          "internalType": "string",
          "name": "",
          "type": "string"
        }
      ],
      "stateMutability": "view",
      "type": "function"
    },
    {
      "inputs": [
        {
          "internalType": "uint16",
          "name": "targetChain",
          "type": "uint16"
        }
      ],
      "name": "quoteConfirmation",
      "outputs": [
        {
          "internalType": "uint256",
          "name": "cost",
          "type": "uint256"
        }
      ],
      "stateMutability": "view",
      "type": "function"
    },
    {
      "inputs": [
        {
          "internalType": "uint16",
          "name": "targetChain",
          "type": "uint16"
        },
        {
          "internalType": "uint256",
          "name": "receiverValue",
          "type": "uint256"
        }
      ],
      "name": "quoteCrossChainGreeting",
      "outputs": [
        {
          "internalType": "uint256",
          "name": "cost",
          "type": "uint256"
        }
      ],
      "stateMutability": "view",
      "type": "function"
    },
    {
      "inputs": [
        {
          "internalType": "bytes",
          "name": "payload",
          "type": "bytes"
        },
        {
          "internalType": "bytes[]",
          "name": "",
          "type": "bytes[]"
        },
        {
          "internalType": "bytes32",
          "name": "sourceAddress",
          "type": "bytes32"
        },
        {
          "internalType": "uint16",
          "name": "sourceChain",
          "type": "uint16"
        },
        {
          "internalType": "bytes32",
          "name": "",
          "type": "bytes32"
        }
      ],
      "name": "receiveWormholeMessages",
      "outputs": [],
      "stateMutability": "payable",
      "type": "function"
    },
    {
      "inputs": [
        {
          "internalType": "uint16",
          "name": "targetChain",
          "type": "uint16"
        },
        {
          "internalType": "address",
          "name": "targetAddress",
          "type": "address"
        },
        {
          "internalType": "string",
          "name": "greeting",
          "type": "string"
        },
        {
          "internalType": "uint256",
          "name": "receiverValueForSecondDeliveryPayment",
          "type": "uint256"
        }
      ],
      "name": "sendCrossChainGreeting",
      "outputs": [],
      "stateMutability": "payable",
      "type": "function"
    },
    {
      "inputs": [
        {
          "internalType": "uint16",
          "name": "sourceChain",
          "type": "uint16"
        },
        {
          "internalType": "bytes32",
          "name": "sourceAddress",
          "type": "bytes32"
        }
      ],
      "name": "setRegisteredSender",
      "outputs": [],
      "stateMutability": "nonpayable",
      "type": "function"
    },
    {
      "inputs": [],
      "name": "wormhole",
      "outputs": [
        {
          "internalType": "contract IWormhole",
          "name": "",
          "type": "address"
        }
      ],
      "stateMutability": "view",
      "type": "function"
    },
    {
      "inputs": [],
      "name": "wormholeRelayer",
      "outputs": [
        {
          "internalType": "contract IWormholeRelayer",
          "name": "",
          "type": "address"
        }
      ],
      "stateMutability": "view",
      "type": "function"
    }
  ],
  "bytecode": "0x60c060405234801561001057600080fd5b5060405161112838038061112883398101604081905261002f91610074565b6001600160a01b039182166080521660a052600080546001600160a01b031916331790556100a7565b80516001600160a01b038116811461006f57600080fd5b919050565b6000806040838503121561008757600080fd5b61009083610058565b915061009e60208401610058565b90509250929050565b60805160a05161103a6100ee600039600060dd01526000818161017f0152818161027a01528181610465015281816105d7015281816106e00152610802015261103a6000f3fe6080604052600436106100865760003560e01c8063921b58a911610059578063921b58a91461012a578063a78de30b1461013f578063da25b7251461016d578063dd12d68b146101a1578063f88adcca146101c157600080fd5b806330e1a2371461008b578063529dca32146100b657806384acd1bb146100cb5780638a28c31f14610117575b600080fd5b34801561009757600080fd5b506100a06101e1565b6040516100ad91906108f8565b60405180910390f35b6100c96100c43660046109f6565b61026f565b005b3480156100d757600080fd5b506100ff7f000000000000000000000000000000000000000000000000000000000000000081565b6040516001600160a01b0390911681526020016100ad565b6100c9610125366004610b17565b6105bb565b34801561013657600080fd5b506100a06106a8565b34801561014b57600080fd5b5061015f61015a366004610b93565b6106b5565b6040519081526020016100ad565b34801561017957600080fd5b506100ff7f000000000000000000000000000000000000000000000000000000000000000081565b3480156101ad57600080fd5b506100c96101bc366004610bae565b610759565b3480156101cd57600080fd5b5061015f6101dc366004610bae565b6107d6565b600380546101ee90610bd8565b80601f016020809104026020016040519081016040528092919081815260200182805461021a90610bd8565b80156102675780601f1061023c57610100808354040283529160200191610267565b820191906000526020600020905b81548152906001019060200180831161024a57829003601f168201915b505050505081565b336001600160a01b037f000000000000000000000000000000000000000000000000000000000000000016146102f75760405162461bcd60e51b815260206004820152602260248201527f4d73672e73656e646572206973206e6f7420576f726d686f6c652052656c617960448201526132b960f11b60648201526084015b60405180910390fd5b61ffff82166000908152600160205260409020548290849081146103555760405162461bcd60e51b81526020600482015260156024820152742737ba103932b3b4b9ba32b932b21039b2b73232b960591b60448201526064016102ee565b60008780602001905181019061036b9190610c21565b9050600081600181111561038157610381610c3c565b03610533576000808980602001905181019061039d9190610c52565b9093509150600290506103b08382610d3b565b507f5c4ab0cfb98525b63324629eb8c98352dec2bece203410170311b78405054676600288836040516103e593929190610dfb565b60405180910390a160006103f8886106b5565b9050803410156104635760405162461bcd60e51b815260206004820152603060248201527f4469646e2774207265636569766520656e6f7567682076616c756520666f722060448201526f746865207365636f6e642073656e642160801b60648201526084016102ee565b7f00000000000000000000000000000000000000000000000000000000000000006001600160a01b0316638fecdd02828a61049d8d61087c565b600188886040516020016104b393929190610ea2565b604051602081830303815290604052600061c3506040518763ffffffff1660e01b81526004016104e7959493929190610ef1565b60206040518083038185885af1158015610505573d6000803e3d6000fd5b50505050506040513d601f19601f8201168201806040525081019061052a9190610f33565b505050506105b1565b600181600181111561054757610547610c3c565b036105b157600080898060200190518101906105639190610c52565b92509250507f6aa04bb8658fed64f72b804aa21b2ef8ec8c344788d23dda61fc51254f407d3e8282604051610599929190610f5d565b60405180910390a160036105ad8382610d3b565b5050505b5050505050505050565b60006105c785836107d6565b90508034146105d557600080fd5b7f00000000000000000000000000000000000000000000000000000000000000006001600160a01b0316634b5ca6f48287876000883360405160200161061d93929190610ea2565b60408051601f1981840301815290829052600480546001600160e01b031960e089901b16845261065d9594938b92620864709261ffff1691339101610f87565b60206040518083038185885af115801561067b573d6000803e3d6000fd5b50505050506040513d601f19601f820116820180604052508101906106a09190610f33565b505050505050565b600280546101ee90610bd8565b60405163c23ee3c360e01b815261ffff8216600482015260006024820181905261c3506044830152907f00000000000000000000000000000000000000000000000000000000000000006001600160a01b03169063c23ee3c3906064016040805180830381865afa15801561072e573d6000803e3d6000fd5b505050506040513d601f19601f820116820180604052508101906107529190610fe0565b5092915050565b6000546001600160a01b031633146107bf5760405162461bcd60e51b8152602060048201526024808201527f4e6f7420616c6c6f77656420746f207365742072656769737465726564207365604482015263373232b960e11b60648201526084016102ee565b61ffff909116600090815260016020526040902055565b60405163c23ee3c360e01b815261ffff83166004820152602481018290526208647060448201526000907f00000000000000000000000000000000000000000000000000000000000000006001600160a01b03169063c23ee3c3906064016040805180830381865afa158015610850573d6000803e3d6000fd5b505050506040513d601f19601f820116820180604052508101906108749190610fe0565b509392505050565b600060a082901c156108a45760405163033b960d60e41b8152600481018390526024016102ee565b5090565b60005b838110156108c35781810151838201526020016108ab565b50506000910152565b600081518084526108e48160208601602086016108a8565b601f01601f19169290920160200192915050565b60208152600061090b60208301846108cc565b9392505050565b634e487b7160e01b600052604160045260246000fd5b604051601f8201601f1916810167ffffffffffffffff8111828210171561095157610951610912565b604052919050565b600067ffffffffffffffff82111561097357610973610912565b50601f01601f191660200190565b600061099461098f84610959565b610928565b90508281528383830111156109a857600080fd5b828260208301376000602084830101529392505050565b600082601f8301126109d057600080fd5b61090b83833560208501610981565b803561ffff811681146109f157600080fd5b919050565b600080600080600060a08688031215610a0e57600080fd5b853567ffffffffffffffff80821115610a2657600080fd5b610a3289838a016109bf565b9650602091508188013581811115610a4957600080fd5b8801601f81018a13610a5a57600080fd5b803582811115610a6c57610a6c610912565b8060051b610a7b858201610928565b918252828101850191858101908d841115610a9557600080fd5b86850192505b83831015610ad157823586811115610ab35760008081fd5b610ac18f89838901016109bf565b8352509186019190860190610a9b565b809a505050505050505060408601359250610aee606087016109df565b949793965091946080013592915050565b6001600160a01b0381168114610b1457600080fd5b50565b60008060008060808587031215610b2d57600080fd5b610b36856109df565b93506020850135610b4681610aff565b9250604085013567ffffffffffffffff811115610b6257600080fd5b8501601f81018713610b7357600080fd5b610b8287823560208401610981565b949793965093946060013593505050565b600060208284031215610ba557600080fd5b61090b826109df565b60008060408385031215610bc157600080fd5b610bca836109df565b946020939093013593505050565b600181811c90821680610bec57607f821691505b602082108103610c0c57634e487b7160e01b600052602260045260246000fd5b50919050565b8051600281106109f157600080fd5b600060208284031215610c3357600080fd5b61090b82610c12565b634e487b7160e01b600052602160045260246000fd5b600080600060608486031215610c6757600080fd5b610c7084610c12565b9250602084015167ffffffffffffffff811115610c8c57600080fd5b8401601f81018613610c9d57600080fd5b8051610cab61098f82610959565b818152876020838501011115610cc057600080fd5b610cd18260208301602086016108a8565b8094505050506040840151610ce581610aff565b809150509250925092565b601f821115610d3657600081815260208120601f850160051c81016020861015610d175750805b601f850160051c820191505b818110156106a057828155600101610d23565b505050565b815167ffffffffffffffff811115610d5557610d55610912565b610d6981610d638454610bd8565b84610cf0565b602080601f831160018114610d9e5760008415610d865750858301515b600019600386901b1c1916600185901b1785556106a0565b600085815260208120601f198616915b82811015610dcd57888601518255948401946001909101908401610dae565b5085821015610deb5787850151600019600388901b60f8161c191681555b5050505050600190811b01905550565b606081526000808554610e0d81610bd8565b8060608601526080600180841660008114610e2f5760018114610e4957610e7a565b60ff1985168884015283151560051b880183019550610e7a565b8a60005260208060002060005b86811015610e715781548b8201870152908401908201610e56565b8a018501975050505b5050505061ffff861660208501525090506001600160a01b0383166040830152949350505050565b600060028510610ec257634e487b7160e01b600052602160045260246000fd5b84825260606020830152610ed960608301856108cc565b905060018060a01b0383166040830152949350505050565b61ffff861681526001600160a01b038516602082015260a060408201819052600090610f1f908301866108cc565b606083019490945250608001529392505050565b600060208284031215610f4557600080fd5b815167ffffffffffffffff8116811461090b57600080fd5b604081526000610f7060408301856108cc565b905060018060a01b03831660208301529392505050565b600061ffff808a16835260018060a01b03808a16602085015260e06040850152610fb460e085018a6108cc565b925087606085015286608085015281861660a085015280851660c0850152505098975050505050505050565b60008060408385031215610ff357600080fd5b50508051602090910151909290915056fea2646970667358221220b036538fd5ae383dcb3b2bfd4b59f85a1a2c835357ff0b3e9feeab142648d6e164736f6c63430008140033",
  "linkReferences": {},
  "deployedLinkReferences": {}
}