{
  "_format": "hh-sol-artifact-1",
  "contractName": "HelloWormholeProtections",
  "sourceName": "contracts/extensions/HelloWormholeProtections.sol",
  "abi": [
    {
      "inputs": [
        {
          "internalType": "address",
          "name": "_wormholeRelayer",
          "type": "address"
        },
        {
          "internalType": "address",
          "name": "_wormhole",
          "type": "address"
        }
      ],
      "stateMutability": "nonpayable",
      "type": "constructor"
    },
    {
      "anonymous": false,
      "inputs": [
        {
          "indexed": false,
          "internalType": "string",
          "name": "greeting",
          "type": "string"
        },
        {
          "indexed": false,
          "internalType": "uint16",
          "name": "senderChain",
          "type": "uint16"
        },
        {
          "indexed": false,
          "internalType": "address",
          "name": "sender",
          "type": "address"
        }
      ],
      "name": "GreetingReceived",
      "type": "event"
    },
    {
      "inputs": [],
      "name": "latestGreeting",
      "outputs": [
        {
          "internalType": "string",
          "name": "",
          "type": "string"
        }
      ],
      "stateMutability": "view",
      "type": "function"
    },
    {
      "inputs": [
        {
          "internalType": "uint16",
          "name": "targetChain",
          "type": "uint16"
        }
      ],
      "name": "quoteCrossChainGreeting",
      "outputs": [
        {
          "internalType": "uint256",
          "name": "cost",
          "type": "uint256"
        }
      ],
      "stateMutability": "view",
      "type": "function"
    },
    {
      "inputs": [
        {
          "internalType": "bytes",
          "name": "payload",
          "type": "bytes"
        },
        {
          "internalType": "bytes[]",
          "name": "",
          "type": "bytes[]"
        },
        {
          "internalType": "bytes32",
          "name": "sourceAddress",
          "type": "bytes32"
        },
        {
          "internalType": "uint16",
          "name": "sourceChain",
          "type": "uint16"
        },
        {
          "internalType": "bytes32",
          "name": "",
          "type": "bytes32"
        }
      ],
      "name": "receiveWormholeMessages",
      "outputs": [],
      "stateMutability": "payable",
      "type": "function"
    },
    {
      "inputs": [
        {
          "internalType": "uint16",
          "name": "targetChain",
          "type": "uint16"
        },
        {
          "internalType": "address",
          "name": "targetAddress",
          "type": "address"
        },
        {
          "internalType": "string",
          "name": "greeting",
          "type": "string"
        }
      ],
      "name": "sendCrossChainGreeting",
      "outputs": [],
      "stateMutability": "payable",
      "type": "function"
    },
    {
      "inputs": [
        {
          "internalType": "uint16",
          "name": "sourceChain",
          "type": "uint16"
        },
        {
          "internalType": "bytes32",
          "name": "sourceAddress",
          "type": "bytes32"
        }
      ],
      "name": "setRegisteredSender",
      "outputs": [],
      "stateMutability": "nonpayable",
      "type": "function"
    },
    {
      "inputs": [],
      "name": "wormhole",
      "outputs": [
        {
          "internalType": "contract IWormhole",
          "name": "",
          "type": "address"
        }
      ],
      "stateMutability": "view",
      "type": "function"
    },
    {
      "inputs": [],
      "name": "wormholeRelayer",
      "outputs": [
        {
          "internalType": "contract IWormholeRelayer",
          "name": "",
          "type": "address"
        }
      ],
      "stateMutability": "view",
      "type": "function"
    }
  ],
  "bytecode": "0x60c060405234801561001057600080fd5b50604051610ce9380380610ce983398101604081905261002f91610074565b6001600160a01b039182166080521660a052600080546001600160a01b031916331790556100a7565b80516001600160a01b038116811461006f57600080fd5b919050565b6000806040838503121561008757600080fd5b61009083610058565b915061009e60208401610058565b90509250929050565b60805160a051610c096100e0600039600060e2015260008181610150015281816101ad01528181610299015261031d0152610c096000f3fe6080604052600436106100705760003560e01c806384acd1bb1161004e57806384acd1bb146100d0578063921b58a91461011c578063da25b7251461013e578063dd12d68b1461017257600080fd5b80630f4b629a1461007557806328bd75ce1461008a578063529dca32146100bd575b600080fd5b61008861008336600461064f565b610192565b005b34801561009657600080fd5b506100aa6100a53660046106c3565b61026e565b6040519081526020015b60405180910390f35b6100886100cb366004610705565b610312565b3480156100dc57600080fd5b506101047f000000000000000000000000000000000000000000000000000000000000000081565b6040516001600160a01b0390911681526020016100b4565b34801561012857600080fd5b50610131610468565b6040516100b4919061085e565b34801561014a57600080fd5b506101047f000000000000000000000000000000000000000000000000000000000000000081565b34801561017e57600080fd5b5061008861018d366004610871565b6104f6565b600061019d8461026e565b90508034146101ab57600080fd5b7f00000000000000000000000000000000000000000000000000000000000000006001600160a01b0316638fecdd0282868686336040516020016101f092919061089b565b604051602081830303815290604052600061c3506040518763ffffffff1660e01b81526004016102249594939291906108c5565b60206040518083038185885af1158015610242573d6000803e3d6000fd5b50505050506040513d601f19601f820116820180604052508101906102679190610907565b5050505050565b60405163c23ee3c360e01b815261ffff8216600482015260006024820181905261c3506044830152907f00000000000000000000000000000000000000000000000000000000000000006001600160a01b03169063c23ee3c3906064016040805180830381865afa1580156102e7573d6000803e3d6000fd5b505050506040513d601f19601f8201168201806040525081019061030b9190610931565b5092915050565b336001600160a01b037f0000000000000000000000000000000000000000000000000000000000000000161461039a5760405162461bcd60e51b815260206004820152602260248201527f4d73672e73656e646572206973206e6f7420576f726d686f6c652052656c617960448201526132b960f11b60648201526084015b60405180910390fd5b61ffff82166000908152600160205260409020548290849081146103f85760405162461bcd60e51b81526020600482015260156024820152742737ba103932b3b4b9ba32b932b21039b2b73232b960591b6044820152606401610391565b6000808880602001905181019061040f9190610955565b909250905060026104208382610a6c565b507f5c4ab0cfb98525b63324629eb8c98352dec2bece203410170311b784050546766002878360405161045593929190610b2c565b60405180910390a1505050505050505050565b60028054610475906109e3565b80601f01602080910402602001604051908101604052809291908181526020018280546104a1906109e3565b80156104ee5780601f106104c3576101008083540402835291602001916104ee565b820191906000526020600020905b8154815290600101906020018083116104d157829003601f168201915b505050505081565b6000546001600160a01b0316331461055c5760405162461bcd60e51b8152602060048201526024808201527f4e6f7420616c6c6f77656420746f207365742072656769737465726564207365604482015263373232b960e11b6064820152608401610391565b61ffff909116600090815260016020526040902055565b803561ffff8116811461058557600080fd5b919050565b6001600160a01b038116811461059f57600080fd5b50565b634e487b7160e01b600052604160045260246000fd5b604051601f8201601f1916810167ffffffffffffffff811182821017156105e1576105e16105a2565b604052919050565b600067ffffffffffffffff821115610603576106036105a2565b50601f01601f191660200190565b600061062461061f846105e9565b6105b8565b905082815283838301111561063857600080fd5b828260208301376000602084830101529392505050565b60008060006060848603121561066457600080fd5b61066d84610573565b9250602084013561067d8161058a565b9150604084013567ffffffffffffffff81111561069957600080fd5b8401601f810186136106aa57600080fd5b6106b986823560208401610611565b9150509250925092565b6000602082840312156106d557600080fd5b6106de82610573565b9392505050565b600082601f8301126106f657600080fd5b6106de83833560208501610611565b600080600080600060a0868803121561071d57600080fd5b853567ffffffffffffffff8082111561073557600080fd5b61074189838a016106e5565b965060209150818801358181111561075857600080fd5b8801601f81018a1361076957600080fd5b80358281111561077b5761077b6105a2565b8060051b61078a8582016105b8565b918252828101850191858101908d8411156107a457600080fd5b86850192505b838310156107e0578235868111156107c25760008081fd5b6107d08f89838901016106e5565b83525091860191908601906107aa565b809a5050505050505050604086013592506107fd60608701610573565b949793965091946080013592915050565b60005b83811015610829578181015183820152602001610811565b50506000910152565b6000815180845261084a81602086016020860161080e565b601f01601f19169290920160200192915050565b6020815260006106de6020830184610832565b6000806040838503121561088457600080fd5b61088d83610573565b946020939093013593505050565b6040815260006108ae6040830185610832565b905060018060a01b03831660208301529392505050565b61ffff861681526001600160a01b038516602082015260a0604082018190526000906108f390830186610832565b606083019490945250608001529392505050565b60006020828403121561091957600080fd5b815167ffffffffffffffff811681146106de57600080fd5b6000806040838503121561094457600080fd5b505080516020909101519092909150565b6000806040838503121561096857600080fd5b825167ffffffffffffffff81111561097f57600080fd5b8301601f8101851361099057600080fd5b805161099e61061f826105e9565b8181528660208385010111156109b357600080fd5b6109c482602083016020860161080e565b80945050505060208301516109d88161058a565b809150509250929050565b600181811c908216806109f757607f821691505b602082108103610a1757634e487b7160e01b600052602260045260246000fd5b50919050565b601f821115610a6757600081815260208120601f850160051c81016020861015610a445750805b601f850160051c820191505b81811015610a6357828155600101610a50565b5050505b505050565b815167ffffffffffffffff811115610a8657610a866105a2565b610a9a81610a9484546109e3565b84610a1d565b602080601f831160018114610acf5760008415610ab75750858301515b600019600386901b1c1916600185901b178555610a63565b600085815260208120601f198616915b82811015610afe57888601518255948401946001909101908401610adf565b5085821015610b1c5787850151600019600388901b60f8161c191681555b5050505050600190811b01905550565b606081526000808554610b3e816109e3565b8060608601526080600180841660008114610b605760018114610b7a57610bab565b60ff1985168884015283151560051b880183019550610bab565b8a60005260208060002060005b86811015610ba25781548b8201870152908401908201610b87565b8a018501975050505b5050505061ffff861660208501525090506001600160a01b038316604083015294935050505056fea264697066735822122096b186a373eb1afa3b27b193dc0b3f0196db191a02b80437f48cdecc5c892b5164736f6c63430008140033",
  "linkReferences": {},
  "deployedLinkReferences": {}
}