{
  "_format": "hh-sol-artifact-1",
  "contractName": "HelloWormholeRefunds",
  "sourceName": "contracts/extensions/HelloWormholeRefunds.sol",
  "abi": [
    {
      "inputs": [
        {
          "internalType": "address",
          "name": "_wormholeRelayer",
          "type": "address"
        }
      ],
      "stateMutability": "nonpayable",
      "type": "constructor"
    },
    {
      "anonymous": false,
      "inputs": [
        {
          "indexed": false,
          "internalType": "string",
          "name": "greeting",
          "type": "string"
        },
        {
          "indexed": false,
          "internalType": "uint16",
          "name": "senderChain",
          "type": "uint16"
        },
        {
          "indexed": false,
          "internalType": "address",
          "name": "sender",
          "type": "address"
        }
      ],
      "name": "GreetingReceived",
      "type": "event"
    },
    {
      "inputs": [],
      "name": "latestGreeting",
      "outputs": [
        {
          "internalType": "string",
          "name": "",
          "type": "string"
        }
      ],
      "stateMutability": "view",
      "type": "function"
    },
    {
      "inputs": [
        {
          "internalType": "uint16",
          "name": "targetChain",
          "type": "uint16"
        }
      ],
      "name": "quoteCrossChainGreeting",
      "outputs": [
        {
          "internalType": "uint256",
          "name": "cost",
          "type": "uint256"
        }
      ],
      "stateMutability": "view",
      "type": "function"
    },
    {
      "inputs": [
        {
          "internalType": "uint16",
          "name": "targetChain",
          "type": "uint16"
        }
      ],
      "name": "quoteCrossChainGreetingRefundPerUnitGasUnused",
      "outputs": [
        {
          "internalType": "uint256",
          "name": "refundPerUnitGasUnused",
          "type": "uint256"
        }
      ],
      "stateMutability": "view",
      "type": "function"
    },
    {
      "inputs": [
        {
          "internalType": "bytes",
          "name": "payload",
          "type": "bytes"
        },
        {
          "internalType": "bytes[]",
          "name": "",
          "type": "bytes[]"
        },
        {
          "internalType": "bytes32",
          "name": "",
          "type": "bytes32"
        },
        {
          "internalType": "uint16",
          "name": "sourceChain",
          "type": "uint16"
        },
        {
          "internalType": "bytes32",
          "name": "",
          "type": "bytes32"
        }
      ],
      "name": "receiveWormholeMessages",
      "outputs": [],
      "stateMutability": "payable",
      "type": "function"
    },
    {
      "inputs": [
        {
          "internalType": "uint16",
          "name": "targetChain",
          "type": "uint16"
        },
        {
          "internalType": "address",
          "name": "targetAddress",
          "type": "address"
        },
        {
          "internalType": "string",
          "name": "greeting",
          "type": "string"
        },
        {
          "internalType": "uint16",
          "name": "refundChain",
          "type": "uint16"
        },
        {
          "internalType": "address",
          "name": "refundAddress",
          "type": "address"
        }
      ],
      "name": "sendCrossChainGreeting",
      "outputs": [],
      "stateMutability": "payable",
      "type": "function"
    },
    {
      "inputs": [],
      "name": "wormholeRelayer",
      "outputs": [
        {
          "internalType": "contract IWormholeRelayer",
          "name": "",
          "type": "address"
        }
      ],
      "stateMutability": "view",
      "type": "function"
    }
  ],
  "bytecode": "0x60a060405234801561001057600080fd5b50604051610c28380380610c2883398101604081905261002f91610040565b6001600160a01b0316608052610070565b60006020828403121561005257600080fd5b81516001600160a01b038116811461006957600080fd5b9392505050565b608051610b816100a7600039600081816101090152818161016f01528181610203015281816102d601526103d80152610b816000f3fe6080604052600436106100555760003560e01c806328bd75ce1461005a57806345328ab91461008d578063529dca32146100a257806370602a1f146100b5578063921b58a9146100d5578063da25b725146100f7575b600080fd5b34801561006657600080fd5b5061007a6100753660046104f6565b610143565b6040519081526020015b60405180910390f35b6100a061009b3660046105d6565b6101e8565b005b6100a06100b0366004610690565b6102cb565b3480156100c157600080fd5b5061007a6100d03660046104f6565b6103ac565b3480156100e157600080fd5b506100ea610451565b60405161008491906107e9565b34801561010357600080fd5b5061012b7f000000000000000000000000000000000000000000000000000000000000000081565b6040516001600160a01b039091168152602001610084565b60405163c23ee3c360e01b815261ffff821660048201526000602482018190526207a1206044830152907f00000000000000000000000000000000000000000000000000000000000000006001600160a01b03169063c23ee3c3906064016040805180830381865afa1580156101bd573d6000803e3d6000fd5b505050506040513d601f19601f820116820180604052508101906101e191906107fc565b5092915050565b60006101f386610143565b905080341461020157600080fd5b7f00000000000000000000000000000000000000000000000000000000000000006001600160a01b0316634b5ca6f48288888833604051602001610246929190610820565b60405160208183030381529060405260006207a1208a8a6040518963ffffffff1660e01b815260040161027f979695949392919061084a565b60206040518083038185885af115801561029d573d6000803e3d6000fd5b50505050506040513d601f19601f820116820180604052508101906102c291906108a3565b50505050505050565b336001600160a01b037f0000000000000000000000000000000000000000000000000000000000000000161461033e5760405162461bcd60e51b815260206004820152601460248201527313db9b1e481c995b185e595c88185b1b1bddd95960621b604482015260640160405180910390fd5b6000808680602001905181019061035591906108cd565b9092509050600061036683826109e4565b507f5c4ab0cfb98525b63324629eb8c98352dec2bece203410170311b784050546766000858360405161039b93929190610aa4565b60405180910390a150505050505050565b60405163c23ee3c360e01b815261ffff821660048201526000602482018190526207a1206044830152907f00000000000000000000000000000000000000000000000000000000000000006001600160a01b03169063c23ee3c3906064016040805180830381865afa158015610426573d6000803e3d6000fd5b505050506040513d601f19601f8201168201806040525081019061044a91906107fc565b9392505050565b6000805461045e9061095b565b80601f016020809104026020016040519081016040528092919081815260200182805461048a9061095b565b80156104d75780601f106104ac576101008083540402835291602001916104d7565b820191906000526020600020905b8154815290600101906020018083116104ba57829003601f168201915b505050505081565b803561ffff811681146104f157600080fd5b919050565b60006020828403121561050857600080fd5b61044a826104df565b6001600160a01b038116811461052657600080fd5b50565b634e487b7160e01b600052604160045260246000fd5b604051601f8201601f1916810167ffffffffffffffff8111828210171561056857610568610529565b604052919050565b600067ffffffffffffffff82111561058a5761058a610529565b50601f01601f191660200190565b60006105ab6105a684610570565b61053f565b90508281528383830111156105bf57600080fd5b828260208301376000602084830101529392505050565b600080600080600060a086880312156105ee57600080fd5b6105f7866104df565b9450602086013561060781610511565b9350604086013567ffffffffffffffff81111561062357600080fd5b8601601f8101881361063457600080fd5b61064388823560208401610598565b935050610652606087016104df565b9150608086013561066281610511565b809150509295509295909350565b600082601f83011261068157600080fd5b61044a83833560208501610598565b600080600080600060a086880312156106a857600080fd5b853567ffffffffffffffff808211156106c057600080fd5b6106cc89838a01610670565b96506020915081880135818111156106e357600080fd5b8801601f81018a136106f457600080fd5b80358281111561070657610706610529565b8060051b61071585820161053f565b918252828101850191858101908d84111561072f57600080fd5b86850192505b8383101561076b5782358681111561074d5760008081fd5b61075b8f8983890101610670565b8352509186019190860190610735565b809a505050505050505060408601359250610788606087016104df565b949793965091946080013592915050565b60005b838110156107b457818101518382015260200161079c565b50506000910152565b600081518084526107d5816020860160208601610799565b601f01601f19169290920160200192915050565b60208152600061044a60208301846107bd565b6000806040838503121561080f57600080fd5b505080516020909101519092909150565b60408152600061083360408301856107bd565b905060018060a01b03831660208301529392505050565b600061ffff808a16835260018060a01b03808a16602085015260e0604085015261087760e085018a6107bd565b925087606085015286608085015281861660a085015280851660c0850152505098975050505050505050565b6000602082840312156108b557600080fd5b815167ffffffffffffffff8116811461044a57600080fd5b600080604083850312156108e057600080fd5b825167ffffffffffffffff8111156108f757600080fd5b8301601f8101851361090857600080fd5b80516109166105a682610570565b81815286602083850101111561092b57600080fd5b61093c826020830160208601610799565b809450505050602083015161095081610511565b809150509250929050565b600181811c9082168061096f57607f821691505b60208210810361098f57634e487b7160e01b600052602260045260246000fd5b50919050565b601f8211156109df57600081815260208120601f850160051c810160208610156109bc5750805b601f850160051c820191505b818110156109db578281556001016109c8565b5050505b505050565b815167ffffffffffffffff8111156109fe576109fe610529565b610a1281610a0c845461095b565b84610995565b602080601f831160018114610a475760008415610a2f5750858301515b600019600386901b1c1916600185901b1785556109db565b600085815260208120601f198616915b82811015610a7657888601518255948401946001909101908401610a57565b5085821015610a945787850151600019600388901b60f8161c191681555b5050505050600190811b01905550565b606081526000808554610ab68161095b565b8060608601526080600180841660008114610ad85760018114610af257610b23565b60ff1985168884015283151560051b880183019550610b23565b8a60005260208060002060005b86811015610b1a5781548b8201870152908401908201610aff565b8a018501975050505b5050505061ffff861660208501525090506001600160a01b038316604083015294935050505056fea26469706673582212200a254150f23b4134e7ace0f136eac8c930153d2f7c50ac888c16d5b3cdf5059764736f6c63430008140033",
  "linkReferences": {},
  "deployedLinkReferences": {}
}